{"abi":[{"type":"constructor","inputs":[{"name":"_ticketNFT","type":"address","internalType":"address"},{"name":"_staking","type":"address","internalType":"address"},{"name":"_validator","type":"address","internalType":"address"},{"name":"_sybil","type":"address","internalType":"address"}],"stateMutability":"nonpayable"},{"type":"function","name":"buyTicket","inputs":[{"name":"tokenURI","type":"string","internalType":"string"},{"name":"qrHash","type":"string","internalType":"string"},{"name":"outsider","type":"bool","internalType":"bool"}],"outputs":[],"stateMutability":"payable"},{"type":"function","name":"cancelEvent","inputs":[],"outputs":[],"stateMutability":"nonpayable"},{"type":"function","name":"eventActive","inputs":[],"outputs":[{"name":"","type":"bool","internalType":"bool"}],"stateMutability":"view"},{"type":"function","name":"getOwnedTickets","inputs":[{"name":"user","type":"address","internalType":"address"}],"outputs":[{"name":"","type":"uint256[]","internalType":"uint256[]"}],"stateMutability":"view"},{"type":"function","name":"getStakedAmount","inputs":[{"name":"user","type":"address","internalType":"address"}],"outputs":[{"name":"","type":"uint256","internalType":"uint256"}],"stateMutability":"view"},{"type":"function","name":"getSybilScore","inputs":[{"name":"user","type":"address","internalType":"address"}],"outputs":[{"name":"","type":"uint256","internalType":"uint256"}],"stateMutability":"view"},{"type":"function","name":"hasTicket","inputs":[{"name":"","type":"address","internalType":"address"}],"outputs":[{"name":"","type":"bool","internalType":"bool"}],"stateMutability":"view"},{"type":"function","name":"isOutsider","inputs":[{"name":"","type":"address","internalType":"address"}],"outputs":[{"name":"","type":"bool","internalType":"bool"}],"stateMutability":"view"},{"type":"function","name":"isValidator","inputs":[{"name":"user","type":"address","internalType":"address"}],"outputs":[{"name":"","type":"bool","internalType":"bool"}],"stateMutability":"view"},{"type":"function","name":"issuedTickets","inputs":[{"name":"","type":"uint256","internalType":"uint256"}],"outputs":[{"name":"","type":"uint256","internalType":"uint256"}],"stateMutability":"view"},{"type":"function","name":"maxTickets","inputs":[],"outputs":[{"name":"","type":"uint256","internalType":"uint256"}],"stateMutability":"view"},{"type":"function","name":"ownedTickets","inputs":[{"name":"","type":"address","internalType":"address"},{"name":"","type":"uint256","internalType":"uint256"}],"outputs":[{"name":"","type":"uint256","internalType":"uint256"}],"stateMutability":"view"},{"type":"function","name":"owner","inputs":[],"outputs":[{"name":"","type":"address","internalType":"address"}],"stateMutability":"view"},{"type":"function","name":"refillTickets","inputs":[{"name":"amount","type":"uint256","internalType":"uint256"}],"outputs":[],"stateMutability":"nonpayable"},{"type":"function","name":"refunded","inputs":[{"name":"","type":"uint256","internalType":"uint256"}],"outputs":[{"name":"","type":"bool","internalType":"bool"}],"stateMutability":"view"},{"type":"function","name":"renounceOwnership","inputs":[],"outputs":[],"stateMutability":"nonpayable"},{"type":"function","name":"sellTicketBack","inputs":[{"name":"tokenId","type":"uint256","internalType":"uint256"}],"outputs":[],"stateMutability":"nonpayable"},{"type":"function","name":"setEventActive","inputs":[{"name":"active","type":"bool","internalType":"bool"}],"outputs":[],"stateMutability":"nonpayable"},{"type":"function","name":"setTicketPrices","inputs":[{"name":"insiderPrice","type":"uint256","internalType":"uint256"},{"name":"outsiderPrice","type":"uint256","internalType":"uint256"}],"outputs":[],"stateMutability":"nonpayable"},{"type":"function","name":"staking","inputs":[],"outputs":[{"name":"","type":"address","internalType":"contract Staking"}],"stateMutability":"view"},{"type":"function","name":"sybil","inputs":[],"outputs":[{"name":"","type":"address","internalType":"contract SybilGuard"}],"stateMutability":"view"},{"type":"function","name":"ticketCount","inputs":[],"outputs":[{"name":"","type":"uint256","internalType":"uint256"}],"stateMutability":"view"},{"type":"function","name":"ticketNFT","inputs":[],"outputs":[{"name":"","type":"address","internalType":"contract TicketNFT"}],"stateMutability":"view"},{"type":"function","name":"ticketPriceInsider","inputs":[],"outputs":[{"name":"","type":"uint256","internalType":"uint256"}],"stateMutability":"view"},{"type":"function","name":"ticketPriceOutsider","inputs":[],"outputs":[{"name":"","type":"uint256","internalType":"uint256"}],"stateMutability":"view"},{"type":"function","name":"totalSupply","inputs":[],"outputs":[{"name":"","type":"uint256","internalType":"uint256"}],"stateMutability":"view"},{"type":"function","name":"transferOwnership","inputs":[{"name":"newOwner","type":"address","internalType":"address"}],"outputs":[],"stateMutability":"nonpayable"},{"type":"function","name":"validator","inputs":[],"outputs":[{"name":"","type":"address","internalType":"contract ValidatorPoS"}],"stateMutability":"view"},{"type":"function","name":"withdrawFunds","inputs":[],"outputs":[],"stateMutability":"nonpayable"},{"type":"event","name":"OwnershipTransferred","inputs":[{"name":"previousOwner","type":"address","indexed":true,"internalType":"address"},{"name":"newOwner","type":"address","indexed":true,"internalType":"address"}],"anonymous":false},{"type":"event","name":"TicketPurchased","inputs":[{"name":"buyer","type":"address","indexed":true,"internalType":"address"},{"name":"tokenId","type":"uint256","indexed":false,"internalType":"uint256"}],"anonymous":false},{"type":"event","name":"TicketRefunded","inputs":[{"name":"holder","type":"address","indexed":true,"internalType":"address"},{"name":"tokenId","type":"uint256","indexed":false,"internalType":"uint256"}],"anonymous":false},{"type":"error","name":"OwnableInvalidOwner","inputs":[{"name":"owner","type":"address","internalType":"address"}]},{"type":"error","name":"OwnableUnauthorizedAccount","inputs":[{"name":"account","type":"address","internalType":"address"}]}],"bytecode":{"object":"0x6080604052600160095f6101000a81548160ff021916908315150217905550348015610029575f5ffd5b506040516126d43803806126d4833981810160405281019061004b919061032b565b335f73ffffffffffffffffffffffffffffffffffffffff168173ffffffffffffffffffffffffffffffffffffffff16036100bc575f6040517f1e4fbdf70000000000000000000000000000000000000000000000000000000081526004016100b3919061039e565b60405180910390fd5b6100cb8161020c60201b60201c565b508360015f6101000a81548173ffffffffffffffffffffffffffffffffffffffff021916908373ffffffffffffffffffffffffffffffffffffffff1602179055508260025f6101000a81548173ffffffffffffffffffffffffffffffffffffffff021916908373ffffffffffffffffffffffffffffffffffffffff1602179055508160035f6101000a81548173ffffffffffffffffffffffffffffffffffffffff021916908373ffffffffffffffffffffffffffffffffffffffff1602179055508060045f6101000a81548173ffffffffffffffffffffffffffffffffffffffff021916908373ffffffffffffffffffffffffffffffffffffffff16021790555066038d7ea4c68000600581905550600260036005546101eb91906103ed565b6101f5919061045b565b60068190555060646007819055505050505061048b565b5f5f5f9054906101000a900473ffffffffffffffffffffffffffffffffffffffff169050815f5f6101000a81548173ffffffffffffffffffffffffffffffffffffffff021916908373ffffffffffffffffffffffffffffffffffffffff1602179055508173ffffffffffffffffffffffffffffffffffffffff168173ffffffffffffffffffffffffffffffffffffffff167f8be0079c531659141344cd1fd0a4f28419497f9722a3daafe3b4186f6b6457e060405160405180910390a35050565b5f5ffd5b5f73ffffffffffffffffffffffffffffffffffffffff82169050919050565b5f6102fa826102d1565b9050919050565b61030a816102f0565b8114610314575f5ffd5b50565b5f8151905061032581610301565b92915050565b5f5f5f5f60808587031215610343576103426102cd565b5b5f61035087828801610317565b945050602061036187828801610317565b935050604061037287828801610317565b925050606061038387828801610317565b91505092959194509250565b610398816102f0565b82525050565b5f6020820190506103b15f83018461038f565b92915050565b5f819050919050565b7f4e487b71000000000000000000000000000000000000000000000000000000005f52601160045260245ffd5b5f6103f7826103b7565b9150610402836103b7565b9250828202610410816103b7565b91508282048414831517610427576104266103c0565b5b5092915050565b7f4e487b71000000000000000000000000000000000000000000000000000000005f52601260045260245ffd5b5f610465826103b7565b9150610470836103b7565b9250826104805761047f61042e565b5b828204905092915050565b61223c806104985f395ff3fe6080604052600436106101c1575f3560e01c80639b894703116100f6578063dfaf3aa211610094578063f2fde38b11610063578063f2fde38b14610631578063f5e989b014610659578063facd743b14610683578063fb6c9537146106bf576101c1565b8063dfaf3aa214610567578063e2142fde1461058f578063e69188d9146105cb578063eb245056146105f5576101c1565b8063b393391b116100d0578063b393391b146104af578063cfbd900f146104d9578063dd53338814610503578063de12e01c1461053f576101c1565b80639b8947031461040d578063a559765314610437578063aeb2d01f14610473576101c1565b80634da6a556116101635780637c5d274c1161013d5780637c5d274c14610355578063831e6ed41461037d5780638da5cb5b146103a757806399eb3759146103d1576101c1565b80634da6a556146102d957806362fd2eff14610315578063715018a61461033f576101c1565b80633a5381b51161019f5780633a5381b514610221578063425b42171461024b5780634527746f146102735780634cf088d9146102af576101c1565b806318160ddd146101c557806324600fc3146101ef578063294fb4e514610205575b5f5ffd5b3480156101d0575f5ffd5b506101d96106d5565b6040516101e691906116db565b60405180910390f35b3480156101fa575f5ffd5b506102036106de565b005b61021f600480360381019061021a9190611876565b610733565b005b34801561022c575f5ffd5b50610235610aea565b6040516102429190611978565b60405180910390f35b348015610256575f5ffd5b50610271600480360381019061026c91906119bb565b610b0f565b005b34801561027e575f5ffd5b5061029960048036038101906102949190611a21565b610e6c565b6040516102a69190611b03565b60405180910390f35b3480156102ba575f5ffd5b506102c3610eff565b6040516102d09190611b43565b60405180910390f35b3480156102e4575f5ffd5b506102ff60048036038101906102fa9190611a21565b610f24565b60405161030c91906116db565b60405180910390f35b348015610320575f5ffd5b50610329610fc5565b6040516103369190611b7c565b60405180910390f35b34801561034a575f5ffd5b50610353610fea565b005b348015610360575f5ffd5b5061037b60048036038101906103769190611b95565b610ffd565b005b348015610388575f5ffd5b50610391611017565b60405161039e9190611be2565b60405180910390f35b3480156103b2575f5ffd5b506103bb611029565b6040516103c89190611c0a565b60405180910390f35b3480156103dc575f5ffd5b506103f760048036038101906103f29190611c23565b611050565b60405161040491906116db565b60405180910390f35b348015610418575f5ffd5b5061042161107b565b60405161042e91906116db565b60405180910390f35b348015610442575f5ffd5b5061045d60048036038101906104589190611a21565b611081565b60405161046a9190611be2565b60405180910390f35b34801561047e575f5ffd5b50610499600480360381019061049491906119bb565b61109e565b6040516104a691906116db565b60405180910390f35b3480156104ba575f5ffd5b506104c36110be565b6040516104d09190611c81565b60405180910390f35b3480156104e4575f5ffd5b506104ed6110e3565b6040516104fa91906116db565b60405180910390f35b34801561050e575f5ffd5b50610529600480360381019061052491906119bb565b6110e9565b6040516105369190611be2565b60405180910390f35b34801561054a575f5ffd5b5061056560048036038101906105609190611c9a565b611106565b005b348015610572575f5ffd5b5061058d600480360381019061058891906119bb565b61112a565b005b34801561059a575f5ffd5b506105b560048036038101906105b09190611a21565b61114d565b6040516105c29190611be2565b60405180910390f35b3480156105d6575f5ffd5b506105df61116a565b6040516105ec91906116db565b60405180910390f35b348015610600575f5ffd5b5061061b60048036038101906106169190611a21565b611170565b60405161062891906116db565b60405180910390f35b34801561063c575f5ffd5b5061065760048036038101906106529190611a21565b611211565b005b348015610664575f5ffd5b5061066d611295565b60405161067a91906116db565b60405180910390f35b34801561068e575f5ffd5b506106a960048036038101906106a49190611a21565b61129b565b6040516106b69190611be2565b60405180910390f35b3480156106ca575f5ffd5b506106d361133c565b005b5f600854905090565b6106e6611574565b6106ee611029565b73ffffffffffffffffffffffffffffffffffffffff166108fc4790811502906040515f60405180830381858888f19350505050158015610730573d5f5f3e3d5ffd5b50565b60095f9054906101000a900460ff16610781576040517f08c379a000000000000000000000000000000000000000000000000000000000815260040161077890611d1f565b60405180910390fd5b600754600854106107c7576040517f08c379a00000000000000000000000000000000000000000000000000000000081526004016107be90611d87565b60405180910390fd5b8061085757600a5f3373ffffffffffffffffffffffffffffffffffffffff1673ffffffffffffffffffffffffffffffffffffffff1681526020019081526020015f205f9054906101000a900460ff1615610856576040517f08c379a000000000000000000000000000000000000000000000000000000000815260040161084d90611def565b60405180910390fd5b5b5f8161086557600554610869565b6006545b90508034146108ad576040517f08c379a00000000000000000000000000000000000000000000000000000000081526004016108a490611e57565b60405180910390fd5b5f60015f9054906101000a900473ffffffffffffffffffffffffffffffffffffffff1673ffffffffffffffffffffffffffffffffffffffff16631d6eef313387876040518463ffffffff1660e01b815260040161090c93929190611ec5565b6020604051808303815f875af1158015610928573d5f5f3e3d5ffd5b505050506040513d601f19601f8201168201806040525081019061094c9190611f1c565b905060085f81548092919061096090611f74565b91905055506001600a5f3373ffffffffffffffffffffffffffffffffffffffff1673ffffffffffffffffffffffffffffffffffffffff1681526020019081526020015f205f6101000a81548160ff02191690831515021790555082600b5f3373ffffffffffffffffffffffffffffffffffffffff1673ffffffffffffffffffffffffffffffffffffffff1681526020019081526020015f205f6101000a81548160ff021916908315150217905550600c5f3373ffffffffffffffffffffffffffffffffffffffff1673ffffffffffffffffffffffffffffffffffffffff1681526020019081526020015f2081908060018154018082558091505060019003905f5260205f20015f9091909190915055600e81908060018154018082558091505060019003905f5260205f20015f90919091909150553373ffffffffffffffffffffffffffffffffffffffff167f0668f5b446eb814fe35b3206f43f14bd8567ba04ddaf7a3ee56516929ab22ccb82604051610adb91906116db565b60405180910390a25050505050565b60035f9054906101000a900473ffffffffffffffffffffffffffffffffffffffff1681565b803373ffffffffffffffffffffffffffffffffffffffff1660015f9054906101000a900473ffffffffffffffffffffffffffffffffffffffff1673ffffffffffffffffffffffffffffffffffffffff16636352211e836040518263ffffffff1660e01b8152600401610b8191906116db565b602060405180830381865afa158015610b9c573d5f5f3e3d5ffd5b505050506040513d601f19601f82011682018060405250810190610bc09190611fcf565b73ffffffffffffffffffffffffffffffffffffffff1614610c16576040517f08c379a0000000000000000000000000000000000000000000000000000000008152600401610c0d90612044565b60405180910390fd5b60095f9054906101000a900460ff16610c64576040517f08c379a0000000000000000000000000000000000000000000000000000000008152600401610c5b906120ac565b60405180910390fd5b600d5f8381526020019081526020015f205f9054906101000a900460ff1615610cc2576040517f08c379a0000000000000000000000000000000000000000000000000000000008152600401610cb990612114565b60405180910390fd5b6001600d5f8481526020019081526020015f205f6101000a81548160ff02191690831515021790555060015f9054906101000a900473ffffffffffffffffffffffffffffffffffffffff1673ffffffffffffffffffffffffffffffffffffffff166323b872dd33610d31611029565b856040518463ffffffff1660e01b8152600401610d5093929190612132565b5f604051808303815f87803b158015610d67575f5ffd5b505af1158015610d79573d5f5f3e3d5ffd5b505050503373ffffffffffffffffffffffffffffffffffffffff166108fc600b5f3373ffffffffffffffffffffffffffffffffffffffff1673ffffffffffffffffffffffffffffffffffffffff1681526020019081526020015f205f9054906101000a900460ff16610ded57600554610df1565b6006545b90811502906040515f60405180830381858888f19350505050158015610e19573d5f5f3e3d5ffd5b503373ffffffffffffffffffffffffffffffffffffffff167fd2888df1f37c007dfb366793b698e4cc1ad930d5790ea0a3e1764d18f366afce83604051610e6091906116db565b60405180910390a25050565b6060600c5f8373ffffffffffffffffffffffffffffffffffffffff1673ffffffffffffffffffffffffffffffffffffffff1681526020019081526020015f20805480602002602001604051908101604052809291908181526020018280548015610ef357602002820191905f5260205f20905b815481526020019060010190808311610edf575b50505050509050919050565b60025f9054906101000a900473ffffffffffffffffffffffffffffffffffffffff1681565b5f60025f9054906101000a900473ffffffffffffffffffffffffffffffffffffffff1673ffffffffffffffffffffffffffffffffffffffff16637a766460836040518263ffffffff1660e01b8152600401610f7f9190611c0a565b602060405180830381865afa158015610f9a573d5f5f3e3d5ffd5b505050506040513d601f19601f82011682018060405250810190610fbe9190611f1c565b9050919050565b60045f9054906101000a900473ffffffffffffffffffffffffffffffffffffffff1681565b610ff2611574565b610ffb5f6115fb565b565b611005611574565b81600581905550806006819055505050565b60095f9054906101000a900460ff1681565b5f5f5f9054906101000a900473ffffffffffffffffffffffffffffffffffffffff16905090565b600c602052815f5260405f208181548110611069575f80fd5b905f5260205f20015f91509150505481565b60075481565b600b602052805f5260405f205f915054906101000a900460ff1681565b600e81815481106110ad575f80fd5b905f5260205f20015f915090505481565b60015f9054906101000a900473ffffffffffffffffffffffffffffffffffffffff1681565b60085481565b600d602052805f5260405f205f915054906101000a900460ff1681565b61110e611574565b8060095f6101000a81548160ff02191690831515021790555050565b611132611574565b8060075f8282546111439190612167565b9250508190555050565b600a602052805f5260405f205f915054906101000a900460ff1681565b60065481565b5f60045f9054906101000a900473ffffffffffffffffffffffffffffffffffffffff1673ffffffffffffffffffffffffffffffffffffffff1663eb245056836040518263ffffffff1660e01b81526004016111cb9190611c0a565b602060405180830381865afa1580156111e6573d5f5f3e3d5ffd5b505050506040513d601f19601f8201168201806040525081019061120a9190611f1c565b9050919050565b611219611574565b5f73ffffffffffffffffffffffffffffffffffffffff168173ffffffffffffffffffffffffffffffffffffffff1603611289575f6040517f1e4fbdf70000000000000000000000000000000000000000000000000000000081526004016112809190611c0a565b60405180910390fd5b611292816115fb565b50565b60055481565b5f60035f9054906101000a900473ffffffffffffffffffffffffffffffffffffffff1673ffffffffffffffffffffffffffffffffffffffff166340550a1c836040518263ffffffff1660e01b81526004016112f69190611c0a565b602060405180830381865afa158015611311573d5f5f3e3d5ffd5b505050506040513d601f19601f8201168201806040525081019061133591906121ae565b9050919050565b611344611574565b5f60095f6101000a81548160ff0219169083151502179055505f5f90505b600e80549050811015611571575f600e8281548110611384576113836121d9565b5b905f5260205f2001549050600d5f8281526020019081526020015f205f9054906101000a900460ff16611563575f60015f9054906101000a900473ffffffffffffffffffffffffffffffffffffffff1673ffffffffffffffffffffffffffffffffffffffff16636352211e836040518263ffffffff1660e01b815260040161140c91906116db565b602060405180830381865afa158015611427573d5f5f3e3d5ffd5b505050506040513d601f19601f8201168201806040525081019061144b9190611fcf565b90506001600d5f8481526020019081526020015f205f6101000a81548160ff0219169083151502179055508073ffffffffffffffffffffffffffffffffffffffff166108fc600b5f8473ffffffffffffffffffffffffffffffffffffffff1673ffffffffffffffffffffffffffffffffffffffff1681526020019081526020015f205f9054906101000a900460ff166114e6576005546114ea565b6006545b90811502906040515f60405180830381858888f19350505050158015611512573d5f5f3e3d5ffd5b508073ffffffffffffffffffffffffffffffffffffffff167fd2888df1f37c007dfb366793b698e4cc1ad930d5790ea0a3e1764d18f366afce8360405161155991906116db565b60405180910390a2505b508080600101915050611362565b50565b61157c6116bc565b73ffffffffffffffffffffffffffffffffffffffff1661159a611029565b73ffffffffffffffffffffffffffffffffffffffff16146115f9576115bd6116bc565b6040517f118cdaa70000000000000000000000000000000000000000000000000000000081526004016115f09190611c0a565b60405180910390fd5b565b5f5f5f9054906101000a900473ffffffffffffffffffffffffffffffffffffffff169050815f5f6101000a81548173ffffffffffffffffffffffffffffffffffffffff021916908373ffffffffffffffffffffffffffffffffffffffff1602179055508173ffffffffffffffffffffffffffffffffffffffff168173ffffffffffffffffffffffffffffffffffffffff167f8be0079c531659141344cd1fd0a4f28419497f9722a3daafe3b4186f6b6457e060405160405180910390a35050565b5f33905090565b5f819050919050565b6116d5816116c3565b82525050565b5f6020820190506116ee5f8301846116cc565b92915050565b5f604051905090565b5f5ffd5b5f5ffd5b5f5ffd5b5f5ffd5b5f601f19601f8301169050919050565b7f4e487b71000000000000000000000000000000000000000000000000000000005f52604160045260245ffd5b6117538261170d565b810181811067ffffffffffffffff821117156117725761177161171d565b5b80604052505050565b5f6117846116f4565b9050611790828261174a565b919050565b5f67ffffffffffffffff8211156117af576117ae61171d565b5b6117b88261170d565b9050602081019050919050565b828183375f83830152505050565b5f6117e56117e084611795565b61177b565b90508281526020810184848401111561180157611800611709565b5b61180c8482856117c5565b509392505050565b5f82601f83011261182857611827611705565b5b81356118388482602086016117d3565b91505092915050565b5f8115159050919050565b61185581611841565b811461185f575f5ffd5b50565b5f813590506118708161184c565b92915050565b5f5f5f6060848603121561188d5761188c6116fd565b5b5f84013567ffffffffffffffff8111156118aa576118a9611701565b5b6118b686828701611814565b935050602084013567ffffffffffffffff8111156118d7576118d6611701565b5b6118e386828701611814565b92505060406118f486828701611862565b9150509250925092565b5f73ffffffffffffffffffffffffffffffffffffffff82169050919050565b5f819050919050565b5f61194061193b611936846118fe565b61191d565b6118fe565b9050919050565b5f61195182611926565b9050919050565b5f61196282611947565b9050919050565b61197281611958565b82525050565b5f60208201905061198b5f830184611969565b92915050565b61199a816116c3565b81146119a4575f5ffd5b50565b5f813590506119b581611991565b92915050565b5f602082840312156119d0576119cf6116fd565b5b5f6119dd848285016119a7565b91505092915050565b5f6119f0826118fe565b9050919050565b611a00816119e6565b8114611a0a575f5ffd5b50565b5f81359050611a1b816119f7565b92915050565b5f60208284031215611a3657611a356116fd565b5b5f611a4384828501611a0d565b91505092915050565b5f81519050919050565b5f82825260208201905092915050565b5f819050602082019050919050565b611a7e816116c3565b82525050565b5f611a8f8383611a75565b60208301905092915050565b5f602082019050919050565b5f611ab182611a4c565b611abb8185611a56565b9350611ac683611a66565b805f5b83811015611af6578151611add8882611a84565b9750611ae883611a9b565b925050600181019050611ac9565b5085935050505092915050565b5f6020820190508181035f830152611b1b8184611aa7565b905092915050565b5f611b2d82611947565b9050919050565b611b3d81611b23565b82525050565b5f602082019050611b565f830184611b34565b92915050565b5f611b6682611947565b9050919050565b611b7681611b5c565b82525050565b5f602082019050611b8f5f830184611b6d565b92915050565b5f5f60408385031215611bab57611baa6116fd565b5b5f611bb8858286016119a7565b9250506020611bc9858286016119a7565b9150509250929050565b611bdc81611841565b82525050565b5f602082019050611bf55f830184611bd3565b92915050565b611c04816119e6565b82525050565b5f602082019050611c1d5f830184611bfb565b92915050565b5f5f60408385031215611c3957611c386116fd565b5b5f611c4685828601611a0d565b9250506020611c57858286016119a7565b9150509250929050565b5f611c6b82611947565b9050919050565b611c7b81611c61565b82525050565b5f602082019050611c945f830184611c72565b92915050565b5f60208284031215611caf57611cae6116fd565b5b5f611cbc84828501611862565b91505092915050565b5f82825260208201905092915050565b7f4576656e74206973206e6f7420616374697665000000000000000000000000005f82015250565b5f611d09601383611cc5565b9150611d1482611cd5565b602082019050919050565b5f6020820190508181035f830152611d3681611cfd565b9050919050565b7f5469636b65747320736f6c64206f7574000000000000000000000000000000005f82015250565b5f611d71601083611cc5565b9150611d7c82611d3d565b602082019050919050565b5f6020820190508181035f830152611d9e81611d65565b9050919050565b7f496e7369646572732063616e20627579206f6e6c79206f6e65207469636b65745f82015250565b5f611dd9602083611cc5565b9150611de482611da5565b602082019050919050565b5f6020820190508181035f830152611e0681611dcd565b9050919050565b7f496e636f7272656374204554482073656e7400000000000000000000000000005f82015250565b5f611e41601283611cc5565b9150611e4c82611e0d565b602082019050919050565b5f6020820190508181035f830152611e6e81611e35565b9050919050565b5f81519050919050565b8281835e5f83830152505050565b5f611e9782611e75565b611ea18185611cc5565b9350611eb1818560208601611e7f565b611eba8161170d565b840191505092915050565b5f606082019050611ed85f830186611bfb565b8181036020830152611eea8185611e8d565b90508181036040830152611efe8184611e8d565b9050949350505050565b5f81519050611f1681611991565b92915050565b5f60208284031215611f3157611f306116fd565b5b5f611f3e84828501611f08565b91505092915050565b7f4e487b71000000000000000000000000000000000000000000000000000000005f52601160045260245ffd5b5f611f7e826116c3565b91507fffffffffffffffffffffffffffffffffffffffffffffffffffffffffffffffff8203611fb057611faf611f47565b5b600182019050919050565b5f81519050611fc9816119f7565b92915050565b5f60208284031215611fe457611fe36116fd565b5b5f611ff184828501611fbb565b91505092915050565b7f4e6f74207469636b6574206f776e6572000000000000000000000000000000005f82015250565b5f61202e601083611cc5565b915061203982611ffa565b602082019050919050565b5f6020820190508181035f83015261205b81612022565b9050919050565b7f4576656e74207761732063616e63656c656400000000000000000000000000005f82015250565b5f612096601283611cc5565b91506120a182612062565b602082019050919050565b5f6020820190508181035f8301526120c38161208a565b9050919050565b7f5469636b657420616c726561647920726566756e6465640000000000000000005f82015250565b5f6120fe601783611cc5565b9150612109826120ca565b602082019050919050565b5f6020820190508181035f83015261212b816120f2565b9050919050565b5f6060820190506121455f830186611bfb565b6121526020830185611bfb565b61215f60408301846116cc565b949350505050565b5f612171826116c3565b915061217c836116c3565b925082820190508082111561219457612193611f47565b5b92915050565b5f815190506121a88161184c565b92915050565b5f602082840312156121c3576121c26116fd565b5b5f6121d08482850161219a565b91505092915050565b7f4e487b71000000000000000000000000000000000000000000000000000000005f52603260045260245ffdfea26469706673582212204656ff4ee4b7750f7a4d1ed201ca16d7eb1ac60c229848db6f2659c40b8200db64736f6c634300081c0033","linkReferences":{}},"methodIdentifiers":{"buyTicket(string,string,bool)":"294fb4e5","cancelEvent()":"fb6c9537","eventActive()":"831e6ed4","getOwnedTickets(address)":"4527746f","getStakedAmount(address)":"4da6a556","getSybilScore(address)":"eb245056","hasTicket(address)":"e2142fde","isOutsider(address)":"a5597653","isValidator(address)":"facd743b","issuedTickets(uint256)":"aeb2d01f","maxTickets()":"9b894703","ownedTickets(address,uint256)":"99eb3759","owner()":"8da5cb5b","refillTickets(uint256)":"dfaf3aa2","refunded(uint256)":"dd533388","renounceOwnership()":"715018a6","sellTicketBack(uint256)":"425b4217","setEventActive(bool)":"de12e01c","setTicketPrices(uint256,uint256)":"7c5d274c","staking()":"4cf088d9","sybil()":"62fd2eff","ticketCount()":"cfbd900f","ticketNFT()":"b393391b","ticketPriceInsider()":"f5e989b0","ticketPriceOutsider()":"e69188d9","totalSupply()":"18160ddd","transferOwnership(address)":"f2fde38b","validator()":"3a5381b5","withdrawFunds()":"24600fc3"},"id":35}