{"abi":[{"type":"constructor","inputs":[{"name":"initialOwner","type":"address","internalType":"address"}],"stateMutability":"nonpayable"},{"type":"function","name":"approve","inputs":[{"name":"to","type":"address","internalType":"address"},{"name":"tokenId","type":"uint256","internalType":"uint256"}],"outputs":[],"stateMutability":"nonpayable"},{"type":"function","name":"balanceOf","inputs":[{"name":"owner","type":"address","internalType":"address"}],"outputs":[{"name":"","type":"uint256","internalType":"uint256"}],"stateMutability":"view"},{"type":"function","name":"burn","inputs":[{"name":"tokenId","type":"uint256","internalType":"uint256"}],"outputs":[],"stateMutability":"nonpayable"},{"type":"function","name":"eventManager","inputs":[],"outputs":[{"name":"","type":"address","internalType":"address"}],"stateMutability":"view"},{"type":"function","name":"getApproved","inputs":[{"name":"tokenId","type":"uint256","internalType":"uint256"}],"outputs":[{"name":"","type":"address","internalType":"address"}],"stateMutability":"view"},{"type":"function","name":"getQRHash","inputs":[{"name":"tokenId","type":"uint256","internalType":"uint256"}],"outputs":[{"name":"","type":"string","internalType":"string"}],"stateMutability":"view"},{"type":"function","name":"isApprovedForAll","inputs":[{"name":"owner","type":"address","internalType":"address"},{"name":"operator","type":"address","internalType":"address"}],"outputs":[{"name":"","type":"bool","internalType":"bool"}],"stateMutability":"view"},{"type":"function","name":"mintTicket","inputs":[{"name":"to","type":"address","internalType":"address"},{"name":"tokenURI","type":"string","internalType":"string"},{"name":"qrHash","type":"string","internalType":"string"}],"outputs":[{"name":"","type":"uint256","internalType":"uint256"}],"stateMutability":"nonpayable"},{"type":"function","name":"name","inputs":[],"outputs":[{"name":"","type":"string","internalType":"string"}],"stateMutability":"view"},{"type":"function","name":"nextTokenId","inputs":[],"outputs":[{"name":"","type":"uint256","internalType":"uint256"}],"stateMutability":"view"},{"type":"function","name":"owner","inputs":[],"outputs":[{"name":"","type":"address","internalType":"address"}],"stateMutability":"view"},{"type":"function","name":"ownerOf","inputs":[{"name":"tokenId","type":"uint256","internalType":"uint256"}],"outputs":[{"name":"","type":"address","internalType":"address"}],"stateMutability":"view"},{"type":"function","name":"qrHashes","inputs":[{"name":"","type":"uint256","internalType":"uint256"}],"outputs":[{"name":"","type":"string","internalType":"string"}],"stateMutability":"view"},{"type":"function","name":"renounceOwnership","inputs":[],"outputs":[],"stateMutability":"nonpayable"},{"type":"function","name":"safeTransferFrom","inputs":[{"name":"from","type":"address","internalType":"address"},{"name":"to","type":"address","internalType":"address"},{"name":"tokenId","type":"uint256","internalType":"uint256"}],"outputs":[],"stateMutability":"nonpayable"},{"type":"function","name":"safeTransferFrom","inputs":[{"name":"from","type":"address","internalType":"address"},{"name":"to","type":"address","internalType":"address"},{"name":"tokenId","type":"uint256","internalType":"uint256"},{"name":"data","type":"bytes","internalType":"bytes"}],"outputs":[],"stateMutability":"nonpayable"},{"type":"function","name":"setApprovalForAll","inputs":[{"name":"operator","type":"address","internalType":"address"},{"name":"approved","type":"bool","internalType":"bool"}],"outputs":[],"stateMutability":"nonpayable"},{"type":"function","name":"setEventManager","inputs":[{"name":"_eventManager","type":"address","internalType":"address"}],"outputs":[],"stateMutability":"nonpayable"},{"type":"function","name":"supportsInterface","inputs":[{"name":"interfaceId","type":"bytes4","internalType":"bytes4"}],"outputs":[{"name":"","type":"bool","internalType":"bool"}],"stateMutability":"view"},{"type":"function","name":"symbol","inputs":[],"outputs":[{"name":"","type":"string","internalType":"string"}],"stateMutability":"view"},{"type":"function","name":"tokenURI","inputs":[{"name":"tokenId","type":"uint256","internalType":"uint256"}],"outputs":[{"name":"","type":"string","internalType":"string"}],"stateMutability":"view"},{"type":"function","name":"transferFrom","inputs":[{"name":"from","type":"address","internalType":"address"},{"name":"to","type":"address","internalType":"address"},{"name":"tokenId","type":"uint256","internalType":"uint256"}],"outputs":[],"stateMutability":"nonpayable"},{"type":"function","name":"transferOwnership","inputs":[{"name":"newOwner","type":"address","internalType":"address"}],"outputs":[],"stateMutability":"nonpayable"},{"type":"event","name":"Approval","inputs":[{"name":"owner","type":"address","indexed":true,"internalType":"address"},{"name":"approved","type":"address","indexed":true,"internalType":"address"},{"name":"tokenId","type":"uint256","indexed":true,"internalType":"uint256"}],"anonymous":false},{"type":"event","name":"ApprovalForAll","inputs":[{"name":"owner","type":"address","indexed":true,"internalType":"address"},{"name":"operator","type":"address","indexed":true,"internalType":"address"},{"name":"approved","type":"bool","indexed":false,"internalType":"bool"}],"anonymous":false},{"type":"event","name":"BatchMetadataUpdate","inputs":[{"name":"_fromTokenId","type":"uint256","indexed":false,"internalType":"uint256"},{"name":"_toTokenId","type":"uint256","indexed":false,"internalType":"uint256"}],"anonymous":false},{"type":"event","name":"EventManagerSet","inputs":[{"name":"newManager","type":"address","indexed":true,"internalType":"address"}],"anonymous":false},{"type":"event","name":"MetadataUpdate","inputs":[{"name":"_tokenId","type":"uint256","indexed":false,"internalType":"uint256"}],"anonymous":false},{"type":"event","name":"OwnershipTransferred","inputs":[{"name":"previousOwner","type":"address","indexed":true,"internalType":"address"},{"name":"newOwner","type":"address","indexed":true,"internalType":"address"}],"anonymous":false},{"type":"event","name":"TicketBurned","inputs":[{"name":"user","type":"address","indexed":true,"internalType":"address"},{"name":"tokenId","type":"uint256","indexed":true,"internalType":"uint256"}],"anonymous":false},{"type":"event","name":"TicketMinted","inputs":[{"name":"to","type":"address","indexed":true,"internalType":"address"},{"name":"tokenId","type":"uint256","indexed":true,"internalType":"uint256"},{"name":"tokenURI","type":"string","indexed":false,"internalType":"string"},{"name":"qrHash","type":"string","indexed":false,"internalType":"string"}],"anonymous":false},{"type":"event","name":"Transfer","inputs":[{"name":"from","type":"address","indexed":true,"internalType":"address"},{"name":"to","type":"address","indexed":true,"internalType":"address"},{"name":"tokenId","type":"uint256","indexed":true,"internalType":"uint256"}],"anonymous":false},{"type":"error","name":"ERC721IncorrectOwner","inputs":[{"name":"sender","type":"address","internalType":"address"},{"name":"tokenId","type":"uint256","internalType":"uint256"},{"name":"owner","type":"address","internalType":"address"}]},{"type":"error","name":"ERC721InsufficientApproval","inputs":[{"name":"operator","type":"address","internalType":"address"},{"name":"tokenId","type":"uint256","internalType":"uint256"}]},{"type":"error","name":"ERC721InvalidApprover","inputs":[{"name":"approver","type":"address","internalType":"address"}]},{"type":"error","name":"ERC721InvalidOperator","inputs":[{"name":"operator","type":"address","internalType":"address"}]},{"type":"error","name":"ERC721InvalidOwner","inputs":[{"name":"owner","type":"address","internalType":"address"}]},{"type":"error","name":"ERC721InvalidReceiver","inputs":[{"name":"receiver","type":"address","internalType":"address"}]},{"type":"error","name":"ERC721InvalidSender","inputs":[{"name":"sender","type":"address","internalType":"address"}]},{"type":"error","name":"ERC721NonexistentToken","inputs":[{"name":"tokenId","type":"uint256","internalType":"uint256"}]},{"type":"error","name":"OwnableInvalidOwner","inputs":[{"name":"owner","type":"address","internalType":"address"}]},{"type":"error","name":"OwnableUnauthorizedAccount","inputs":[{"name":"account","type":"address","internalType":"address"}]}],"bytecode":{"object":"0x608060405234801561000f575f5ffd5b5060405161334338038061334383398181016040528101906100319190610266565b806040518060400160405280600f81526020017f426c6f636b466573745469636b657400000000000000000000000000000000008152506040518060400160405280600381526020017f4246540000000000000000000000000000000000000000000000000000000000815250815f90816100ac91906104ce565b5080600190816100bc91906104ce565b5050505f73ffffffffffffffffffffffffffffffffffffffff168173ffffffffffffffffffffffffffffffffffffffff160361012f575f6040517f1e4fbdf700000000000000000000000000000000000000000000000000000000815260040161012691906105ac565b60405180910390fd5b61013e8161014560201b60201c565b50506105c5565b5f60075f9054906101000a900473ffffffffffffffffffffffffffffffffffffffff1690508160075f6101000a81548173ffffffffffffffffffffffffffffffffffffffff021916908373ffffffffffffffffffffffffffffffffffffffff1602179055508173ffffffffffffffffffffffffffffffffffffffff168173ffffffffffffffffffffffffffffffffffffffff167f8be0079c531659141344cd1fd0a4f28419497f9722a3daafe3b4186f6b6457e060405160405180910390a35050565b5f5ffd5b5f73ffffffffffffffffffffffffffffffffffffffff82169050919050565b5f6102358261020c565b9050919050565b6102458161022b565b811461024f575f5ffd5b50565b5f815190506102608161023c565b92915050565b5f6020828403121561027b5761027a610208565b5b5f61028884828501610252565b91505092915050565b5f81519050919050565b7f4e487b71000000000000000000000000000000000000000000000000000000005f52604160045260245ffd5b7f4e487b71000000000000000000000000000000000000000000000000000000005f52602260045260245ffd5b5f600282049050600182168061030c57607f821691505b60208210810361031f5761031e6102c8565b5b50919050565b5f819050815f5260205f209050919050565b5f6020601f8301049050919050565b5f82821b905092915050565b5f600883026103817fffffffffffffffffffffffffffffffffffffffffffffffffffffffffffffffff82610346565b61038b8683610346565b95508019841693508086168417925050509392505050565b5f819050919050565b5f819050919050565b5f6103cf6103ca6103c5846103a3565b6103ac565b6103a3565b9050919050565b5f819050919050565b6103e8836103b5565b6103fc6103f4826103d6565b848454610352565b825550505050565b5f5f905090565b610413610404565b61041e8184846103df565b505050565b5b81811015610441576104365f8261040b565b600181019050610424565b5050565b601f8211156104865761045781610325565b61046084610337565b8101602085101561046f578190505b61048361047b85610337565b830182610423565b50505b505050565b5f82821c905092915050565b5f6104a65f198460080261048b565b1980831691505092915050565b5f6104be8383610497565b9150826002028217905092915050565b6104d782610291565b67ffffffffffffffff8111156104f0576104ef61029b565b5b6104fa82546102f5565b610505828285610445565b5f60209050601f831160018114610536575f8415610524578287015190505b61052e85826104b3565b865550610595565b601f19841661054486610325565b5f5b8281101561056b57848901518255600182019150602085019450602081019050610546565b868310156105885784890151610584601f891682610497565b8355505b6001600288020188555050505b505050505050565b6105a68161022b565b82525050565b5f6020820190506105bf5f83018461059d565b92915050565b612d71806105d25f395ff3fe608060405234801561000f575f5ffd5b506004361061014b575f3560e01c8063715018a6116100c1578063b88d4fde1161007a578063b88d4fde14610387578063c830f27a146103a3578063c87b56dd146103d3578063d97df48b14610403578063e985e9c514610433578063f2fde38b146104635761014b565b8063715018a6146102e957806375794a3c146102f35780638da5cb5b146103115780638fd611be1461032f57806395d89b411461034d578063a22cb4651461036b5761014b565b806323b872dd1161011357806323b872dd1461021957806342842e0e1461023557806342966c6814610251578063596fd76e1461026d5780636352211e1461028957806370a08231146102b95761014b565b806301ffc9a71461014f57806306fdde031461017f578063081812fc1461019d578063095ea7b3146101cd5780631d6eef31146101e9575b5f5ffd5b610169600480360381019061016491906120a6565b61047f565b60405161017691906120eb565b60405180910390f35b6101876104df565b6040516101949190612174565b60405180910390f35b6101b760048036038101906101b291906121c7565b61056e565b6040516101c49190612231565b60405180910390f35b6101e760048036038101906101e29190612274565b610589565b005b61020360048036038101906101fe91906123de565b61059f565b6040516102109190612475565b60405180910390f35b610233600480360381019061022e919061248e565b6106d7565b005b61024f600480360381019061024a919061248e565b6107d6565b005b61026b600480360381019061026691906121c7565b6107f5565b005b610287600480360381019061028291906124de565b61092e565b005b6102a3600480360381019061029e91906121c7565b610a2a565b6040516102b09190612231565b60405180910390f35b6102d360048036038101906102ce91906124de565b610a3b565b6040516102e09190612475565b60405180910390f35b6102f1610af1565b005b6102fb610b04565b6040516103089190612475565b60405180910390f35b610319610b0a565b6040516103269190612231565b60405180910390f35b610337610b32565b6040516103449190612231565b60405180910390f35b610355610b57565b6040516103629190612174565b60405180910390f35b61038560048036038101906103809190612533565b610be7565b005b6103a1600480360381019061039c919061260f565b610bfd565b005b6103bd60048036038101906103b891906121c7565b610c22565b6040516103ca9190612174565b60405180910390f35b6103ed60048036038101906103e891906121c7565b610cc3565b6040516103fa9190612174565b60405180910390f35b61041d600480360381019061041891906121c7565b610dce565b60405161042a9190612174565b60405180910390f35b61044d6004803603810190610448919061268f565b610e69565b60405161045a91906120eb565b60405180910390f35b61047d600480360381019061047891906124de565b610ef7565b005b5f634906490660e01b7bffffffffffffffffffffffffffffffffffffffffffffffffffffffff1916827bffffffffffffffffffffffffffffffffffffffffffffffffffffffff191614806104d857506104d782610f7b565b5b9050919050565b60605f80546104ed906126fa565b80601f0160208091040260200160405190810160405280929190818152602001828054610519906126fa565b80156105645780601f1061053b57610100808354040283529160200191610564565b820191905f5260205f20905b81548152906001019060200180831161054757829003601f168201915b5050505050905090565b5f6105788261105c565b50610582826110e2565b9050919050565b61059b828261059661111b565b611122565b5050565b5f60095f9054906101000a900473ffffffffffffffffffffffffffffffffffffffff1673ffffffffffffffffffffffffffffffffffffffff163373ffffffffffffffffffffffffffffffffffffffff161461062f576040517f08c379a000000000000000000000000000000000000000000000000000000000815260040161062690612774565b60405180910390fd5b5f60085f815480929190610642906127bf565b9190505590506106528582611134565b61065c8185611227565b82600a5f8381526020019081526020015f20908161067a91906129a6565b50808573ffffffffffffffffffffffffffffffffffffffff167f8738c548206f13bd5a7b1c94f43bc83ca922ca699225c5a887cede57cefa9ffc86866040516106c4929190612a75565b60405180910390a3809150509392505050565b5f73ffffffffffffffffffffffffffffffffffffffff168273ffffffffffffffffffffffffffffffffffffffff1603610747575f6040517f64a0ae9200000000000000000000000000000000000000000000000000000000815260040161073e9190612231565b60405180910390fd5b5f61075a838361075561111b565b611281565b90508373ffffffffffffffffffffffffffffffffffffffff168173ffffffffffffffffffffffffffffffffffffffff16146107d0578382826040517f64283d7b0000000000000000000000000000000000000000000000000000000081526004016107c793929190612aaa565b60405180910390fd5b50505050565b6107f083838360405180602001604052805f815250610bfd565b505050565b3373ffffffffffffffffffffffffffffffffffffffff1661081582610a2a565b73ffffffffffffffffffffffffffffffffffffffff161480610883575060095f9054906101000a900473ffffffffffffffffffffffffffffffffffffffff1673ffffffffffffffffffffffffffffffffffffffff163373ffffffffffffffffffffffffffffffffffffffff16145b6108c2576040517f08c379a00000000000000000000000000000000000000000000000000000000081526004016108b990612b29565b60405180910390fd5b600a5f8281526020019081526020015f205f6108de9190611fe8565b6108e78161148c565b803373ffffffffffffffffffffffffffffffffffffffff167f3ae11a6adaba0f056e92acab88f55f69202fac261b44fb60deadc84643399efa60405160405180910390a350565b61093661150e565b5f73ffffffffffffffffffffffffffffffffffffffff168173ffffffffffffffffffffffffffffffffffffffff16036109a4576040517f08c379a000000000000000000000000000000000000000000000000000000000815260040161099b90612b91565b60405180910390fd5b8060095f6101000a81548173ffffffffffffffffffffffffffffffffffffffff021916908373ffffffffffffffffffffffffffffffffffffffff1602179055508073ffffffffffffffffffffffffffffffffffffffff167f5e1c88b7a6d5b160f8c22f4009d0d19366f1466f978a671bb528d21cdb8066ad60405160405180910390a250565b5f610a348261105c565b9050919050565b5f5f73ffffffffffffffffffffffffffffffffffffffff168273ffffffffffffffffffffffffffffffffffffffff1603610aac575f6040517f89c62b64000000000000000000000000000000000000000000000000000000008152600401610aa39190612231565b60405180910390fd5b60035f8373ffffffffffffffffffffffffffffffffffffffff1673ffffffffffffffffffffffffffffffffffffffff1681526020019081526020015f20549050919050565b610af961150e565b610b025f611595565b565b60085481565b5f60075f9054906101000a900473ffffffffffffffffffffffffffffffffffffffff16905090565b60095f9054906101000a900473ffffffffffffffffffffffffffffffffffffffff1681565b606060018054610b66906126fa565b80601f0160208091040260200160405190810160405280929190818152602001828054610b92906126fa565b8015610bdd5780601f10610bb457610100808354040283529160200191610bdd565b820191905f5260205f20905b815481529060010190602001808311610bc057829003601f168201915b5050505050905090565b610bf9610bf261111b565b8383611658565b5050565b610c088484846106d7565b610c1c610c1361111b565b858585856117c1565b50505050565b6060600a5f8381526020019081526020015f208054610c40906126fa565b80601f0160208091040260200160405190810160405280929190818152602001828054610c6c906126fa565b8015610cb75780601f10610c8e57610100808354040283529160200191610cb7565b820191905f5260205f20905b815481529060010190602001808311610c9a57829003601f168201915b50505050509050919050565b6060610cce8261105c565b505f60065f8481526020019081526020015f208054610cec906126fa565b80601f0160208091040260200160405190810160405280929190818152602001828054610d18906126fa565b8015610d635780601f10610d3a57610100808354040283529160200191610d63565b820191905f5260205f20905b815481529060010190602001808311610d4657829003601f168201915b505050505090505f610d7361196d565b90505f815103610d87578192505050610dc9565b5f82511115610dbb578082604051602001610da3929190612be9565b60405160208183030381529060405292505050610dc9565b610dc484611983565b925050505b919050565b600a602052805f5260405f205f915090508054610dea906126fa565b80601f0160208091040260200160405190810160405280929190818152602001828054610e16906126fa565b8015610e615780601f10610e3857610100808354040283529160200191610e61565b820191905f5260205f20905b815481529060010190602001808311610e4457829003601f168201915b505050505081565b5f60055f8473ffffffffffffffffffffffffffffffffffffffff1673ffffffffffffffffffffffffffffffffffffffff1681526020019081526020015f205f8373ffffffffffffffffffffffffffffffffffffffff1673ffffffffffffffffffffffffffffffffffffffff1681526020019081526020015f205f9054906101000a900460ff16905092915050565b610eff61150e565b5f73ffffffffffffffffffffffffffffffffffffffff168173ffffffffffffffffffffffffffffffffffffffff1603610f6f575f6040517f1e4fbdf7000000000000000000000000000000000000000000000000000000008152600401610f669190612231565b60405180910390fd5b610f7881611595565b50565b5f7f80ac58cd000000000000000000000000000000000000000000000000000000007bffffffffffffffffffffffffffffffffffffffffffffffffffffffff1916827bffffffffffffffffffffffffffffffffffffffffffffffffffffffff1916148061104557507f5b5e139f000000000000000000000000000000000000000000000000000000007bffffffffffffffffffffffffffffffffffffffffffffffffffffffff1916827bffffffffffffffffffffffffffffffffffffffffffffffffffffffff1916145b806110555750611054826119e9565b5b9050919050565b5f5f61106783611a52565b90505f73ffffffffffffffffffffffffffffffffffffffff168173ffffffffffffffffffffffffffffffffffffffff16036110d957826040517f7e2732890000000000000000000000000000000000000000000000000000000081526004016110d09190612475565b60405180910390fd5b80915050919050565b5f60045f8381526020019081526020015f205f9054906101000a900473ffffffffffffffffffffffffffffffffffffffff169050919050565b5f33905090565b61112f8383836001611a8b565b505050565b5f73ffffffffffffffffffffffffffffffffffffffff168273ffffffffffffffffffffffffffffffffffffffff16036111a4575f6040517f64a0ae9200000000000000000000000000000000000000000000000000000000815260040161119b9190612231565b60405180910390fd5b5f6111b083835f611281565b90505f73ffffffffffffffffffffffffffffffffffffffff168173ffffffffffffffffffffffffffffffffffffffff1614611222575f6040517f73c6ac6e0000000000000000000000000000000000000000000000000000000081526004016112199190612231565b60405180910390fd5b505050565b8060065f8481526020019081526020015f20908161124591906129a6565b507ff8e1a15aba9398e019f0b49df1a4fde98ee17ae345cb5f6b5e2c27f5033e8ce7826040516112759190612475565b60405180910390a15050565b5f5f61128c84611a52565b90505f73ffffffffffffffffffffffffffffffffffffffff168373ffffffffffffffffffffffffffffffffffffffff16146112cd576112cc818486611c4a565b5b5f73ffffffffffffffffffffffffffffffffffffffff168173ffffffffffffffffffffffffffffffffffffffff16146113585761130c5f855f5f611a8b565b600160035f8373ffffffffffffffffffffffffffffffffffffffff1673ffffffffffffffffffffffffffffffffffffffff1681526020019081526020015f205f82825403925050819055505b5f73ffffffffffffffffffffffffffffffffffffffff168573ffffffffffffffffffffffffffffffffffffffff16146113d757600160035f8773ffffffffffffffffffffffffffffffffffffffff1673ffffffffffffffffffffffffffffffffffffffff1681526020019081526020015f205f82825401925050819055505b8460025f8681526020019081526020015f205f6101000a81548173ffffffffffffffffffffffffffffffffffffffff021916908373ffffffffffffffffffffffffffffffffffffffff160217905550838573ffffffffffffffffffffffffffffffffffffffff168273ffffffffffffffffffffffffffffffffffffffff167fddf252ad1be2c89b69c2b068fc378daa952ba7f163c4a11628f55a4df523b3ef60405160405180910390a4809150509392505050565b5f6114985f835f611281565b90505f73ffffffffffffffffffffffffffffffffffffffff168173ffffffffffffffffffffffffffffffffffffffff160361150a57816040517f7e2732890000000000000000000000000000000000000000000000000000000081526004016115019190612475565b60405180910390fd5b5050565b61151661111b565b73ffffffffffffffffffffffffffffffffffffffff16611534610b0a565b73ffffffffffffffffffffffffffffffffffffffff16146115935761155761111b565b6040517f118cdaa700000000000000000000000000000000000000000000000000000000815260040161158a9190612231565b60405180910390fd5b565b5f60075f9054906101000a900473ffffffffffffffffffffffffffffffffffffffff1690508160075f6101000a81548173ffffffffffffffffffffffffffffffffffffffff021916908373ffffffffffffffffffffffffffffffffffffffff1602179055508173ffffffffffffffffffffffffffffffffffffffff168173ffffffffffffffffffffffffffffffffffffffff167f8be0079c531659141344cd1fd0a4f28419497f9722a3daafe3b4186f6b6457e060405160405180910390a35050565b5f73ffffffffffffffffffffffffffffffffffffffff168273ffffffffffffffffffffffffffffffffffffffff16036116c857816040517f5b08ba180000000000000000000000000000000000000000000000000000000081526004016116bf9190612231565b60405180910390fd5b8060055f8573ffffffffffffffffffffffffffffffffffffffff1673ffffffffffffffffffffffffffffffffffffffff1681526020019081526020015f205f8473ffffffffffffffffffffffffffffffffffffffff1673ffffffffffffffffffffffffffffffffffffffff1681526020019081526020015f205f6101000a81548160ff0219169083151502179055508173ffffffffffffffffffffffffffffffffffffffff168373ffffffffffffffffffffffffffffffffffffffff167f17307eab39ab6107e8899845ad3d59bd9653f200f220920489ca2b5937696c31836040516117b491906120eb565b60405180910390a3505050565b5f8373ffffffffffffffffffffffffffffffffffffffff163b1115611966578273ffffffffffffffffffffffffffffffffffffffff1663150b7a02868685856040518563ffffffff1660e01b815260040161181f9493929190612c5e565b6020604051808303815f875af192505050801561185a57506040513d601f19601f820116820180604052508101906118579190612cbc565b60015b6118db573d805f8114611888576040519150601f19603f3d011682016040523d82523d5f602084013e61188d565b606091505b505f8151036118d357836040517f64a0ae920000000000000000000000000000000000000000000000000000000081526004016118ca9190612231565b60405180910390fd5b805181602001fd5b63150b7a0260e01b7bffffffffffffffffffffffffffffffffffffffffffffffffffffffff1916817bffffffffffffffffffffffffffffffffffffffffffffffffffffffff19161461196457836040517f64a0ae9200000000000000000000000000000000000000000000000000000000815260040161195b9190612231565b60405180910390fd5b505b5050505050565b606060405180602001604052805f815250905090565b606061198e8261105c565b505f61199861196d565b90505f8151116119b65760405180602001604052805f8152506119e1565b806119c084611d0d565b6040516020016119d1929190612be9565b6040516020818303038152906040525b915050919050565b5f7f01ffc9a7000000000000000000000000000000000000000000000000000000007bffffffffffffffffffffffffffffffffffffffffffffffffffffffff1916827bffffffffffffffffffffffffffffffffffffffffffffffffffffffff1916149050919050565b5f60025f8381526020019081526020015f205f9054906101000a900473ffffffffffffffffffffffffffffffffffffffff169050919050565b8080611ac357505f73ffffffffffffffffffffffffffffffffffffffff168273ffffffffffffffffffffffffffffffffffffffff1614155b15611bf5575f611ad28461105c565b90505f73ffffffffffffffffffffffffffffffffffffffff168373ffffffffffffffffffffffffffffffffffffffff1614158015611b3c57508273ffffffffffffffffffffffffffffffffffffffff168173ffffffffffffffffffffffffffffffffffffffff1614155b8015611b4f5750611b4d8184610e69565b155b15611b9157826040517fa9fbf51f000000000000000000000000000000000000000000000000000000008152600401611b889190612231565b60405180910390fd5b8115611bf357838573ffffffffffffffffffffffffffffffffffffffff168273ffffffffffffffffffffffffffffffffffffffff167f8c5be1e5ebec7d5bd14f71427d1e84f3dd0314c0f7b2291e5b200ac8c7c3b92560405160405180910390a45b505b8360045f8581526020019081526020015f205f6101000a81548173ffffffffffffffffffffffffffffffffffffffff021916908373ffffffffffffffffffffffffffffffffffffffff16021790555050505050565b611c55838383611dd7565b611d08575f73ffffffffffffffffffffffffffffffffffffffff168373ffffffffffffffffffffffffffffffffffffffff1603611cc957806040517f7e273289000000000000000000000000000000000000000000000000000000008152600401611cc09190612475565b60405180910390fd5b81816040517f177e802f000000000000000000000000000000000000000000000000000000008152600401611cff929190612ce7565b60405180910390fd5b505050565b60605f6001611d1b84611e97565b0190505f8167ffffffffffffffff811115611d3957611d386122ba565b5b6040519080825280601f01601f191660200182016040528015611d6b5781602001600182028036833780820191505090505b5090505f82602001820190505b600115611dcc578080600190039150507f3031323334353637383961626364656600000000000000000000000000000000600a86061a8153600a8581611dc157611dc0612d0e565b5b0494505f8503611d78575b819350505050919050565b5f5f73ffffffffffffffffffffffffffffffffffffffff168373ffffffffffffffffffffffffffffffffffffffff1614158015611e8e57508273ffffffffffffffffffffffffffffffffffffffff168473ffffffffffffffffffffffffffffffffffffffff161480611e4f5750611e4e8484610e69565b5b80611e8d57508273ffffffffffffffffffffffffffffffffffffffff16611e75836110e2565b73ffffffffffffffffffffffffffffffffffffffff16145b5b90509392505050565b5f5f5f90507a184f03e93ff9f4daa797ed6e38ed64bf6a1f0100000000000000008310611ef3577a184f03e93ff9f4daa797ed6e38ed64bf6a1f0100000000000000008381611ee957611ee8612d0e565b5b0492506040810190505b6d04ee2d6d415b85acef81000000008310611f30576d04ee2d6d415b85acef81000000008381611f2657611f25612d0e565b5b0492506020810190505b662386f26fc100008310611f5f57662386f26fc100008381611f5557611f54612d0e565b5b0492506010810190505b6305f5e1008310611f88576305f5e1008381611f7e57611f7d612d0e565b5b0492506008810190505b6127108310611fad576127108381611fa357611fa2612d0e565b5b0492506004810190505b60648310611fd05760648381611fc657611fc5612d0e565b5b0492506002810190505b600a8310611fdf576001810190505b80915050919050565b508054611ff4906126fa565b5f825580601f106120055750612022565b601f0160209004905f5260205f20908101906120219190612025565b5b50565b5b8082111561203c575f815f905550600101612026565b5090565b5f604051905090565b5f5ffd5b5f5ffd5b5f7fffffffff0000000000000000000000000000000000000000000000000000000082169050919050565b61208581612051565b811461208f575f5ffd5b50565b5f813590506120a08161207c565b92915050565b5f602082840312156120bb576120ba612049565b5b5f6120c884828501612092565b91505092915050565b5f8115159050919050565b6120e5816120d1565b82525050565b5f6020820190506120fe5f8301846120dc565b92915050565b5f81519050919050565b5f82825260208201905092915050565b8281835e5f83830152505050565b5f601f19601f8301169050919050565b5f61214682612104565b612150818561210e565b935061216081856020860161211e565b6121698161212c565b840191505092915050565b5f6020820190508181035f83015261218c818461213c565b905092915050565b5f819050919050565b6121a681612194565b81146121b0575f5ffd5b50565b5f813590506121c18161219d565b92915050565b5f602082840312156121dc576121db612049565b5b5f6121e9848285016121b3565b91505092915050565b5f73ffffffffffffffffffffffffffffffffffffffff82169050919050565b5f61221b826121f2565b9050919050565b61222b81612211565b82525050565b5f6020820190506122445f830184612222565b92915050565b61225381612211565b811461225d575f5ffd5b50565b5f8135905061226e8161224a565b92915050565b5f5f6040838503121561228a57612289612049565b5b5f61229785828601612260565b92505060206122a8858286016121b3565b9150509250929050565b5f5ffd5b5f5ffd5b7f4e487b71000000000000000000000000000000000000000000000000000000005f52604160045260245ffd5b6122f08261212c565b810181811067ffffffffffffffff8211171561230f5761230e6122ba565b5b80604052505050565b5f612321612040565b905061232d82826122e7565b919050565b5f67ffffffffffffffff82111561234c5761234b6122ba565b5b6123558261212c565b9050602081019050919050565b828183375f83830152505050565b5f61238261237d84612332565b612318565b90508281526020810184848401111561239e5761239d6122b6565b5b6123a9848285612362565b509392505050565b5f82601f8301126123c5576123c46122b2565b5b81356123d5848260208601612370565b91505092915050565b5f5f5f606084860312156123f5576123f4612049565b5b5f61240286828701612260565b935050602084013567ffffffffffffffff8111156124235761242261204d565b5b61242f868287016123b1565b925050604084013567ffffffffffffffff8111156124505761244f61204d565b5b61245c868287016123b1565b9150509250925092565b61246f81612194565b82525050565b5f6020820190506124885f830184612466565b92915050565b5f5f5f606084860312156124a5576124a4612049565b5b5f6124b286828701612260565b93505060206124c386828701612260565b92505060406124d4868287016121b3565b9150509250925092565b5f602082840312156124f3576124f2612049565b5b5f61250084828501612260565b91505092915050565b612512816120d1565b811461251c575f5ffd5b50565b5f8135905061252d81612509565b92915050565b5f5f6040838503121561254957612548612049565b5b5f61255685828601612260565b92505060206125678582860161251f565b9150509250929050565b5f67ffffffffffffffff82111561258b5761258a6122ba565b5b6125948261212c565b9050602081019050919050565b5f6125b36125ae84612571565b612318565b9050828152602081018484840111156125cf576125ce6122b6565b5b6125da848285612362565b509392505050565b5f82601f8301126125f6576125f56122b2565b5b81356126068482602086016125a1565b91505092915050565b5f5f5f5f6080858703121561262757612626612049565b5b5f61263487828801612260565b945050602061264587828801612260565b9350506040612656878288016121b3565b925050606085013567ffffffffffffffff8111156126775761267661204d565b5b612683878288016125e2565b91505092959194509250565b5f5f604083850312156126a5576126a4612049565b5b5f6126b285828601612260565b92505060206126c385828601612260565b9150509250929050565b7f4e487b71000000000000000000000000000000000000000000000000000000005f52602260045260245ffd5b5f600282049050600182168061271157607f821691505b602082108103612724576127236126cd565b5b50919050565b7f4e6f7420617574686f72697a65640000000000000000000000000000000000005f82015250565b5f61275e600e8361210e565b91506127698261272a565b602082019050919050565b5f6020820190508181035f83015261278b81612752565b9050919050565b7f4e487b71000000000000000000000000000000000000000000000000000000005f52601160045260245ffd5b5f6127c982612194565b91507fffffffffffffffffffffffffffffffffffffffffffffffffffffffffffffffff82036127fb576127fa612792565b5b600182019050919050565b5f819050815f5260205f209050919050565b5f6020601f8301049050919050565b5f82821b905092915050565b5f600883026128627fffffffffffffffffffffffffffffffffffffffffffffffffffffffffffffffff82612827565b61286c8683612827565b95508019841693508086168417925050509392505050565b5f819050919050565b5f6128a76128a261289d84612194565b612884565b612194565b9050919050565b5f819050919050565b6128c08361288d565b6128d46128cc826128ae565b848454612833565b825550505050565b5f5f905090565b6128eb6128dc565b6128f68184846128b7565b505050565b5b818110156129195761290e5f826128e3565b6001810190506128fc565b5050565b601f82111561295e5761292f81612806565b61293884612818565b81016020851015612947578190505b61295b61295385612818565b8301826128fb565b50505b505050565b5f82821c905092915050565b5f61297e5f1984600802612963565b1980831691505092915050565b5f612996838361296f565b9150826002028217905092915050565b6129af82612104565b67ffffffffffffffff8111156129c8576129c76122ba565b5b6129d282546126fa565b6129dd82828561291d565b5f60209050601f831160018114612a0e575f84156129fc578287015190505b612a06858261298b565b865550612a6d565b601f198416612a1c86612806565b5f5b82811015612a4357848901518255600182019150602085019450602081019050612a1e565b86831015612a605784890151612a5c601f89168261296f565b8355505b6001600288020188555050505b505050505050565b5f6040820190508181035f830152612a8d818561213c565b90508181036020830152612aa1818461213c565b90509392505050565b5f606082019050612abd5f830186612222565b612aca6020830185612466565b612ad76040830184612222565b949350505050565b7f4e6f7420617574686f72697a656420746f206275726e000000000000000000005f82015250565b5f612b1360168361210e565b9150612b1e82612adf565b602082019050919050565b5f6020820190508181035f830152612b4081612b07565b9050919050565b7f496e76616c6964206576656e74206d616e6167657220616464726573730000005f82015250565b5f612b7b601d8361210e565b9150612b8682612b47565b602082019050919050565b5f6020820190508181035f830152612ba881612b6f565b9050919050565b5f81905092915050565b5f612bc382612104565b612bcd8185612baf565b9350612bdd81856020860161211e565b80840191505092915050565b5f612bf48285612bb9565b9150612c008284612bb9565b91508190509392505050565b5f81519050919050565b5f82825260208201905092915050565b5f612c3082612c0c565b612c3a8185612c16565b9350612c4a81856020860161211e565b612c538161212c565b840191505092915050565b5f608082019050612c715f830187612222565b612c7e6020830186612222565b612c8b6040830185612466565b8181036060830152612c9d8184612c26565b905095945050505050565b5f81519050612cb68161207c565b92915050565b5f60208284031215612cd157612cd0612049565b5b5f612cde84828501612ca8565b91505092915050565b5f604082019050612cfa5f830185612222565b612d076020830184612466565b9392505050565b7f4e487b71000000000000000000000000000000000000000000000000000000005f52601260045260245ffdfea264697066735822122082f8222f95f18bcea21887d67722b327385ff3420512c80ff5ef513144b434fa64736f6c634300081c0033","linkReferences":{}},"methodIdentifiers":{"approve(address,uint256)":"095ea7b3","balanceOf(address)":"70a08231","burn(uint256)":"42966c68","eventManager()":"8fd611be","getApproved(uint256)":"081812fc","getQRHash(uint256)":"c830f27a","isApprovedForAll(address,address)":"e985e9c5","mintTicket(address,string,string)":"1d6eef31","name()":"06fdde03","nextTokenId()":"75794a3c","owner()":"8da5cb5b","ownerOf(uint256)":"6352211e","qrHashes(uint256)":"d97df48b","renounceOwnership()":"715018a6","safeTransferFrom(address,address,uint256)":"42842e0e","safeTransferFrom(address,address,uint256,bytes)":"b88d4fde","setApprovalForAll(address,bool)":"a22cb465","setEventManager(address)":"596fd76e","supportsInterface(bytes4)":"01ffc9a7","symbol()":"95d89b41","tokenURI(uint256)":"c87b56dd","transferFrom(address,address,uint256)":"23b872dd","transferOwnership(address)":"f2fde38b"},"id":38}