{"abi":[{"type":"constructor","inputs":[{"name":"_token","type":"address","internalType":"address"},{"name":"_owner","type":"address","internalType":"address"}],"stateMutability":"nonpayable"},{"type":"function","name":"getStake","inputs":[{"name":"_user","type":"address","internalType":"address"}],"outputs":[{"name":"","type":"uint256","internalType":"uint256"}],"stateMutability":"view"},{"type":"function","name":"getStakePercentage","inputs":[{"name":"_user","type":"address","internalType":"address"}],"outputs":[{"name":"","type":"uint256","internalType":"uint256"}],"stateMutability":"view"},{"type":"function","name":"getStakerCount","inputs":[],"outputs":[{"name":"","type":"uint256","internalType":"uint256"}],"stateMutability":"view"},{"type":"function","name":"hashData","inputs":[{"name":"_user","type":"address","internalType":"address"},{"name":"_amount","type":"uint256","internalType":"uint256"},{"name":"_timestamp","type":"uint256","internalType":"uint256"}],"outputs":[{"name":"","type":"bytes32","internalType":"bytes32"}],"stateMutability":"pure"},{"type":"function","name":"hashString","inputs":[{"name":"_input","type":"string","internalType":"string"}],"outputs":[{"name":"","type":"bytes32","internalType":"bytes32"}],"stateMutability":"nonpayable"},{"type":"function","name":"hashTransaction","inputs":[{"name":"_from","type":"address","internalType":"address"},{"name":"_to","type":"address","internalType":"address"},{"name":"_amount","type":"uint256","internalType":"uint256"},{"name":"_nonce","type":"uint256","internalType":"uint256"}],"outputs":[{"name":"","type":"bytes32","internalType":"bytes32"}],"stateMutability":"pure"},{"type":"function","name":"inactivityThreshold","inputs":[],"outputs":[{"name":"","type":"uint256","internalType":"uint256"}],"stateMutability":"view"},{"type":"function","name":"maxStakePercent","inputs":[],"outputs":[{"name":"","type":"uint256","internalType":"uint256"}],"stateMutability":"view"},{"type":"function","name":"minStakeAmount","inputs":[],"outputs":[{"name":"","type":"uint256","internalType":"uint256"}],"stateMutability":"view"},{"type":"function","name":"owner","inputs":[],"outputs":[{"name":"","type":"address","internalType":"address"}],"stateMutability":"view"},{"type":"function","name":"penaltyRate","inputs":[],"outputs":[{"name":"","type":"uint256","internalType":"uint256"}],"stateMutability":"view"},{"type":"function","name":"protectedFunction","inputs":[],"outputs":[],"stateMutability":"nonpayable"},{"type":"function","name":"pureHashString","inputs":[{"name":"_input","type":"string","internalType":"string"}],"outputs":[{"name":"","type":"bytes32","internalType":"bytes32"}],"stateMutability":"pure"},{"type":"function","name":"renounceOwnership","inputs":[],"outputs":[],"stateMutability":"nonpayable"},{"type":"function","name":"setInactivityThreshold","inputs":[{"name":"_threshold","type":"uint256","internalType":"uint256"}],"outputs":[],"stateMutability":"nonpayable"},{"type":"function","name":"setMaxStakePercent","inputs":[{"name":"_percent","type":"uint256","internalType":"uint256"}],"outputs":[],"stateMutability":"nonpayable"},{"type":"function","name":"setMinStakeAmount","inputs":[{"name":"_amount","type":"uint256","internalType":"uint256"}],"outputs":[],"stateMutability":"nonpayable"},{"type":"function","name":"setPenaltyRate","inputs":[{"name":"_rate","type":"uint256","internalType":"uint256"}],"outputs":[],"stateMutability":"nonpayable"},{"type":"function","name":"slashInactiveStaker","inputs":[{"name":"_staker","type":"address","internalType":"address"}],"outputs":[],"stateMutability":"nonpayable"},{"type":"function","name":"stake","inputs":[{"name":"_amount","type":"uint256","internalType":"uint256"}],"outputs":[],"stateMutability":"nonpayable"},{"type":"function","name":"stakers","inputs":[{"name":"","type":"uint256","internalType":"uint256"}],"outputs":[{"name":"","type":"address","internalType":"address"}],"stateMutability":"view"},{"type":"function","name":"stakes","inputs":[{"name":"","type":"address","internalType":"address"}],"outputs":[{"name":"amount","type":"uint256","internalType":"uint256"},{"name":"timestamp","type":"uint256","internalType":"uint256"}],"stateMutability":"view"},{"type":"function","name":"token","inputs":[],"outputs":[{"name":"","type":"address","internalType":"contract IERC20"}],"stateMutability":"view"},{"type":"function","name":"totalStaked","inputs":[],"outputs":[{"name":"","type":"uint256","internalType":"uint256"}],"stateMutability":"view"},{"type":"function","name":"transferOwnership","inputs":[{"name":"newOwner","type":"address","internalType":"address"}],"outputs":[],"stateMutability":"nonpayable"},{"type":"function","name":"unstake","inputs":[{"name":"_amount","type":"uint256","internalType":"uint256"}],"outputs":[],"stateMutability":"nonpayable"},{"type":"event","name":"HashGenerated","inputs":[{"name":"hash","type":"bytes32","indexed":false,"internalType":"bytes32"}],"anonymous":false},{"type":"event","name":"OwnershipTransferred","inputs":[{"name":"previousOwner","type":"address","indexed":true,"internalType":"address"},{"name":"newOwner","type":"address","indexed":true,"internalType":"address"}],"anonymous":false},{"type":"event","name":"Slashed","inputs":[{"name":"user","type":"address","indexed":true,"internalType":"address"},{"name":"amount","type":"uint256","indexed":false,"internalType":"uint256"}],"anonymous":false},{"type":"event","name":"Staked","inputs":[{"name":"user","type":"address","indexed":true,"internalType":"address"},{"name":"amount","type":"uint256","indexed":false,"internalType":"uint256"}],"anonymous":false},{"type":"event","name":"Unstaked","inputs":[{"name":"user","type":"address","indexed":true,"internalType":"address"},{"name":"amount","type":"uint256","indexed":false,"internalType":"uint256"}],"anonymous":false},{"type":"error","name":"OwnableInvalidOwner","inputs":[{"name":"owner","type":"address","internalType":"address"}]},{"type":"error","name":"OwnableUnauthorizedAccount","inputs":[{"name":"account","type":"address","internalType":"address"}]}],"bytecode":{"object":"0x608060405234801561000f575f5ffd5b50604051611ff6380380611ff683398181016040528101906100319190610241565b805f73ffffffffffffffffffffffffffffffffffffffff168173ffffffffffffffffffffffffffffffffffffffff16036100a2575f6040517f1e4fbdf7000000000000000000000000000000000000000000000000000000008152600401610099919061028e565b60405180910390fd5b6100b18161012260201b60201c565b508160015f6101000a81548173ffffffffffffffffffffffffffffffffffffffff021916908373ffffffffffffffffffffffffffffffffffffffff160217905550670de0b6b3a7640000600581905550601e60068190555062278d00600781905550600a60088190555050506102a7565b5f5f5f9054906101000a900473ffffffffffffffffffffffffffffffffffffffff169050815f5f6101000a81548173ffffffffffffffffffffffffffffffffffffffff021916908373ffffffffffffffffffffffffffffffffffffffff1602179055508173ffffffffffffffffffffffffffffffffffffffff168173ffffffffffffffffffffffffffffffffffffffff167f8be0079c531659141344cd1fd0a4f28419497f9722a3daafe3b4186f6b6457e060405160405180910390a35050565b5f5ffd5b5f73ffffffffffffffffffffffffffffffffffffffff82169050919050565b5f610210826101e7565b9050919050565b61022081610206565b811461022a575f5ffd5b50565b5f8151905061023b81610217565b92915050565b5f5f60408385031215610257576102566101e3565b5b5f6102648582860161022d565b92505060206102758582860161022d565b9150509250929050565b61028881610206565b82525050565b5f6020820190506102a15f83018461027f565b92915050565b611d42806102b45f395ff3fe608060405234801561000f575f5ffd5b506004361061018c575f3560e01c80639ec86276116100dc578063d7eaef4911610095578063f18876841161006f578063f18876841461046d578063f2fde38b1461048b578063fc0c546a146104a7578063fd5e6dd1146104c55761018c565b8063d7eaef4914610417578063df72a76914610433578063eb4af045146104515761018c565b80639ec8627614610357578063a1bab44714610375578063a48dd9e114610391578063a694fc3a146103c1578063c3a6668c146103dd578063d6b7494f146103f95761018c565b8063715018a6116101495780637a766460116101235780637a766460146102bb578063817b1cd2146102eb57806385e48dd2146103095780638da5cb5b146103395761018c565b8063715018a614610251578063766954b41461025b57806376731f9e1461028b5761018c565b8063021e9894146101905780630514c74b1461019a5780631319649d146101b657806316934fc4146101d45780632e17de781461020557806350fa907014610221575b5f5ffd5b6101986104f5565b005b6101b460048036038101906101af919061120e565b61057b565b005b6101be6105d1565b6040516101cb9190611248565b60405180910390f35b6101ee60048036038101906101e991906112bb565b6105dd565b6040516101fc9291906112e6565b60405180910390f35b61021f600480360381019061021a919061120e565b6105fd565b005b61023b6004803603810190610236919061130d565b610818565b6040516102489190611389565b60405180910390f35b610259610850565b005b610275600480360381019061027091906114de565b610863565b6040516102829190611389565b60405180910390f35b6102a560048036038101906102a09190611525565b6108ce565b6040516102b29190611389565b60405180910390f35b6102d560048036038101906102d091906112bb565b610903565b6040516102e29190611248565b60405180910390f35b6102f361094b565b6040516103009190611248565b60405180910390f35b610323600480360381019061031e91906112bb565b610951565b6040516103309190611248565b60405180910390f35b6103416109c4565b60405161034e9190611584565b60405180910390f35b61035f6109eb565b60405161036c9190611248565b60405180910390f35b61038f600480360381019061038a919061120e565b6109f1565b005b6103ab60048036038101906103a691906114de565b610a47565b6040516103b89190611389565b60405180910390f35b6103db60048036038101906103d6919061120e565b610a76565b005b6103f760048036038101906103f291906112bb565b610ddd565b005b610401610f61565b60405161040e9190611248565b60405180910390f35b610431600480360381019061042c919061120e565b610f67565b005b61043b610f79565b6040516104489190611248565b60405180910390f35b61046b6004803603810190610466919061120e565b610f7f565b005b610475610f91565b6040516104829190611248565b60405180910390f35b6104a560048036038101906104a091906112bb565b610f97565b005b6104af61101b565b6040516104bc91906115f8565b60405180910390f35b6104df60048036038101906104da919061120e565b611040565b6040516104ec9190611584565b60405180910390f35b60055460025f3373ffffffffffffffffffffffffffffffffffffffff1673ffffffffffffffffffffffffffffffffffffffff1681526020019081526020015f205f01541015610579576040517f08c379a00000000000000000000000000000000000000000000000000000000081526004016105709061166b565b60405180910390fd5b565b61058361107b565b60648111156105c7576040517f08c379a00000000000000000000000000000000000000000000000000000000081526004016105be906116d3565b60405180910390fd5b8060068190555050565b5f600380549050905090565b6002602052805f5260405f205f91509050805f0154908060010154905082565b8060025f3373ffffffffffffffffffffffffffffffffffffffff1673ffffffffffffffffffffffffffffffffffffffff1681526020019081526020015f205f0154101561067f576040517f08c379a00000000000000000000000000000000000000000000000000000000081526004016106769061173b565b60405180910390fd5b8060025f3373ffffffffffffffffffffffffffffffffffffffff1673ffffffffffffffffffffffffffffffffffffffff1681526020019081526020015f205f015f8282546106cd9190611786565b925050819055508060045f8282546106e59190611786565b9250508190555060015f9054906101000a900473ffffffffffffffffffffffffffffffffffffffff1673ffffffffffffffffffffffffffffffffffffffff1663a9059cbb33836040518363ffffffff1660e01b81526004016107489291906117b9565b6020604051808303815f875af1158015610764573d5f5f3e3d5ffd5b505050506040513d601f19601f820116820180604052508101906107889190611815565b6107c7576040517f08c379a00000000000000000000000000000000000000000000000000000000081526004016107be9061188a565b60405180910390fd5b3373ffffffffffffffffffffffffffffffffffffffff167f0f5bb82176feb1b5e747e28471aa92156a04d9f3ab9f45f28e2d704232b93f758260405161080d9190611248565b60405180910390a250565b5f84848484604051602001610830949392919061190d565b604051602081830303815290604052805190602001209050949350505050565b61085861107b565b6108615f611102565b565b5f5f8260405160200161087691906119ac565b6040516020818303038152906040528051906020012090507f24044d2968d6fcef55b2f6074eb4d62fcef6fda4e1ddaa00ab8860e9a9fe2ad0816040516108bd9190611389565b60405180910390a180915050919050565b5f8383836040516020016108e4939291906119c2565b6040516020818303038152906040528051906020012090509392505050565b5f60025f8373ffffffffffffffffffffffffffffffffffffffff1673ffffffffffffffffffffffffffffffffffffffff1681526020019081526020015f205f01549050919050565b60045481565b5f5f60045403610963575f90506109bf565b600454606460025f8573ffffffffffffffffffffffffffffffffffffffff1673ffffffffffffffffffffffffffffffffffffffff1681526020019081526020015f205f01546109b291906119fe565b6109bc9190611a6c565b90505b919050565b5f5f5f9054906101000a900473ffffffffffffffffffffffffffffffffffffffff16905090565b60075481565b6109f961107b565b6064811115610a3d576040517f08c379a0000000000000000000000000000000000000000000000000000000008152600401610a3490611ae6565b60405180910390fd5b8060088190555050565b5f81604051602001610a5991906119ac565b604051602081830303815290604052805190602001209050919050565b600554811015610abb576040517f08c379a0000000000000000000000000000000000000000000000000000000008152600401610ab290611b4e565b60405180910390fd5b60015f9054906101000a900473ffffffffffffffffffffffffffffffffffffffff1673ffffffffffffffffffffffffffffffffffffffff166323b872dd3330846040518463ffffffff1660e01b8152600401610b1993929190611b6c565b6020604051808303815f875af1158015610b35573d5f5f3e3d5ffd5b505050506040513d601f19601f82011682018060405250810190610b599190611815565b610b98576040517f08c379a0000000000000000000000000000000000000000000000000000000008152600401610b8f9061188a565b60405180910390fd5b5f8160025f3373ffffffffffffffffffffffffffffffffffffffff1673ffffffffffffffffffffffffffffffffffffffff1681526020019081526020015f205f0154610be49190611ba1565b90505f82600454610bf59190611ba1565b905060065481606484610c0891906119fe565b610c129190611a6c565b1115610c53576040517f08c379a0000000000000000000000000000000000000000000000000000000008152600401610c4a90611c1e565b60405180910390fd5b5f60025f3373ffffffffffffffffffffffffffffffffffffffff1673ffffffffffffffffffffffffffffffffffffffff1681526020019081526020015f205f015403610cfa57600333908060018154018082558091505060019003905f5260205f20015f9091909190916101000a81548173ffffffffffffffffffffffffffffffffffffffff021916908373ffffffffffffffffffffffffffffffffffffffff1602179055505b8160025f3373ffffffffffffffffffffffffffffffffffffffff1673ffffffffffffffffffffffffffffffffffffffff1681526020019081526020015f205f01819055504260025f3373ffffffffffffffffffffffffffffffffffffffff1673ffffffffffffffffffffffffffffffffffffffff1681526020019081526020015f2060010181905550806004819055503373ffffffffffffffffffffffffffffffffffffffff167f9e71bc8eea02a63969f509818f2dafb9254532904319f9dbda79b67bd34a5f3d84604051610dd09190611248565b60405180910390a2505050565b610de561107b565b5f60025f8373ffffffffffffffffffffffffffffffffffffffff1673ffffffffffffffffffffffffffffffffffffffff1681526020019081526020015f2090505f815f015411610e6a576040517f08c379a0000000000000000000000000000000000000000000000000000000008152600401610e6190611c86565b60405180910390fd5b600754816001015442610e7d9190611786565b11610ebd576040517f08c379a0000000000000000000000000000000000000000000000000000000008152600401610eb490611cee565b60405180910390fd5b5f6064600854835f0154610ed191906119fe565b610edb9190611a6c565b905080825f015f828254610eef9190611786565b925050819055508060045f828254610f079190611786565b925050819055508273ffffffffffffffffffffffffffffffffffffffff167f4ed05e9673c26d2ed44f7ef6a7f2942df0ee3b5e1e17db4b99f9dcd261a339cd82604051610f549190611248565b60405180910390a2505050565b60085481565b610f6f61107b565b8060078190555050565b60065481565b610f8761107b565b8060058190555050565b60055481565b610f9f61107b565b5f73ffffffffffffffffffffffffffffffffffffffff168173ffffffffffffffffffffffffffffffffffffffff160361100f575f6040517f1e4fbdf70000000000000000000000000000000000000000000000000000000081526004016110069190611584565b60405180910390fd5b61101881611102565b50565b60015f9054906101000a900473ffffffffffffffffffffffffffffffffffffffff1681565b6003818154811061104f575f80fd5b905f5260205f20015f915054906101000a900473ffffffffffffffffffffffffffffffffffffffff1681565b6110836111c3565b73ffffffffffffffffffffffffffffffffffffffff166110a16109c4565b73ffffffffffffffffffffffffffffffffffffffff1614611100576110c46111c3565b6040517f118cdaa70000000000000000000000000000000000000000000000000000000081526004016110f79190611584565b60405180910390fd5b565b5f5f5f9054906101000a900473ffffffffffffffffffffffffffffffffffffffff169050815f5f6101000a81548173ffffffffffffffffffffffffffffffffffffffff021916908373ffffffffffffffffffffffffffffffffffffffff1602179055508173ffffffffffffffffffffffffffffffffffffffff168173ffffffffffffffffffffffffffffffffffffffff167f8be0079c531659141344cd1fd0a4f28419497f9722a3daafe3b4186f6b6457e060405160405180910390a35050565b5f33905090565b5f604051905090565b5f5ffd5b5f5ffd5b5f819050919050565b6111ed816111db565b81146111f7575f5ffd5b50565b5f81359050611208816111e4565b92915050565b5f60208284031215611223576112226111d3565b5b5f611230848285016111fa565b91505092915050565b611242816111db565b82525050565b5f60208201905061125b5f830184611239565b92915050565b5f73ffffffffffffffffffffffffffffffffffffffff82169050919050565b5f61128a82611261565b9050919050565b61129a81611280565b81146112a4575f5ffd5b50565b5f813590506112b581611291565b92915050565b5f602082840312156112d0576112cf6111d3565b5b5f6112dd848285016112a7565b91505092915050565b5f6040820190506112f95f830185611239565b6113066020830184611239565b9392505050565b5f5f5f5f60808587031215611325576113246111d3565b5b5f611332878288016112a7565b9450506020611343878288016112a7565b9350506040611354878288016111fa565b9250506060611365878288016111fa565b91505092959194509250565b5f819050919050565b61138381611371565b82525050565b5f60208201905061139c5f83018461137a565b92915050565b5f5ffd5b5f5ffd5b5f601f19601f8301169050919050565b7f4e487b71000000000000000000000000000000000000000000000000000000005f52604160045260245ffd5b6113f0826113aa565b810181811067ffffffffffffffff8211171561140f5761140e6113ba565b5b80604052505050565b5f6114216111ca565b905061142d82826113e7565b919050565b5f67ffffffffffffffff82111561144c5761144b6113ba565b5b611455826113aa565b9050602081019050919050565b828183375f83830152505050565b5f61148261147d84611432565b611418565b90508281526020810184848401111561149e5761149d6113a6565b5b6114a9848285611462565b509392505050565b5f82601f8301126114c5576114c46113a2565b5b81356114d5848260208601611470565b91505092915050565b5f602082840312156114f3576114f26111d3565b5b5f82013567ffffffffffffffff8111156115105761150f6111d7565b5b61151c848285016114b1565b91505092915050565b5f5f5f6060848603121561153c5761153b6111d3565b5b5f611549868287016112a7565b935050602061155a868287016111fa565b925050604061156b868287016111fa565b9150509250925092565b61157e81611280565b82525050565b5f6020820190506115975f830184611575565b92915050565b5f819050919050565b5f6115c06115bb6115b684611261565b61159d565b611261565b9050919050565b5f6115d1826115a6565b9050919050565b5f6115e2826115c7565b9050919050565b6115f2816115d8565b82525050565b5f60208201905061160b5f8301846115e9565b92915050565b5f82825260208201905092915050565b7f5374616b6520726571756972656420666f7220616363657373000000000000005f82015250565b5f611655601983611611565b915061166082611621565b602082019050919050565b5f6020820190508181035f83015261168281611649565b9050919050565b7f496e76616c69642070657263656e7400000000000000000000000000000000005f82015250565b5f6116bd600f83611611565b91506116c882611689565b602082019050919050565b5f6020820190508181035f8301526116ea816116b1565b9050919050565b7f496e73756666696369656e74207374616b656420616d6f756e740000000000005f82015250565b5f611725601a83611611565b9150611730826116f1565b602082019050919050565b5f6020820190508181035f83015261175281611719565b9050919050565b7f4e487b71000000000000000000000000000000000000000000000000000000005f52601160045260245ffd5b5f611790826111db565b915061179b836111db565b92508282039050818111156117b3576117b2611759565b5b92915050565b5f6040820190506117cc5f830185611575565b6117d96020830184611239565b9392505050565b5f8115159050919050565b6117f4816117e0565b81146117fe575f5ffd5b50565b5f8151905061180f816117eb565b92915050565b5f6020828403121561182a576118296111d3565b5b5f61183784828501611801565b91505092915050565b7f5472616e73666572206661696c656400000000000000000000000000000000005f82015250565b5f611874600f83611611565b915061187f82611840565b602082019050919050565b5f6020820190508181035f8301526118a181611868565b9050919050565b5f8160601b9050919050565b5f6118be826118a8565b9050919050565b5f6118cf826118b4565b9050919050565b6118e76118e282611280565b6118c5565b82525050565b5f819050919050565b611907611902826111db565b6118ed565b82525050565b5f61191882876118d6565b60148201915061192882866118d6565b60148201915061193882856118f6565b60208201915061194882846118f6565b60208201915081905095945050505050565b5f81519050919050565b5f81905092915050565b8281835e5f83830152505050565b5f6119868261195a565b6119908185611964565b93506119a081856020860161196e565b80840191505092915050565b5f6119b7828461197c565b915081905092915050565b5f6119cd82866118d6565b6014820191506119dd82856118f6565b6020820191506119ed82846118f6565b602082019150819050949350505050565b5f611a08826111db565b9150611a13836111db565b9250828202611a21816111db565b91508282048414831517611a3857611a37611759565b5b5092915050565b7f4e487b71000000000000000000000000000000000000000000000000000000005f52601260045260245ffd5b5f611a76826111db565b9150611a81836111db565b925082611a9157611a90611a3f565b5b828204905092915050565b7f496e76616c6964207261746500000000000000000000000000000000000000005f82015250565b5f611ad0600c83611611565b9150611adb82611a9c565b602082019050919050565b5f6020820190508181035f830152611afd81611ac4565b9050919050565b7f416d6f756e742062656c6f77206d696e696d756d207374616b650000000000005f82015250565b5f611b38601a83611611565b9150611b4382611b04565b602082019050919050565b5f6020820190508181035f830152611b6581611b2c565b9050919050565b5f606082019050611b7f5f830186611575565b611b8c6020830185611575565b611b996040830184611239565b949350505050565b5f611bab826111db565b9150611bb6836111db565b9250828201905080821115611bce57611bcd611759565b5b92915050565b7f5374616b65206578636565647320616c6c6f776564206c696d697400000000005f82015250565b5f611c08601b83611611565b9150611c1382611bd4565b602082019050919050565b5f6020820190508181035f830152611c3581611bfc565b9050919050565b7f4e6f7468696e6720746f20736c617368000000000000000000000000000000005f82015250565b5f611c70601083611611565b9150611c7b82611c3c565b602082019050919050565b5f6020820190508181035f830152611c9d81611c64565b9050919050565b7f5374616b6572207374696c6c20616374697665000000000000000000000000005f82015250565b5f611cd8601383611611565b9150611ce382611ca4565b602082019050919050565b5f6020820190508181035f830152611d0581611ccc565b905091905056fea264697066735822122030e8103965bfb8a74b902fd979870e20899c38c2a310a3f7dd7aba5ba755ed8e64736f6c634300081c0033","linkReferences":{}},"methodIdentifiers":{"getStake(address)":"7a766460","getStakePercentage(address)":"85e48dd2","getStakerCount()":"1319649d","hashData(address,uint256,uint256)":"76731f9e","hashString(string)":"766954b4","hashTransaction(address,address,uint256,uint256)":"50fa9070","inactivityThreshold()":"9ec86276","maxStakePercent()":"df72a769","minStakeAmount()":"f1887684","owner()":"8da5cb5b","penaltyRate()":"d6b7494f","protectedFunction()":"021e9894","pureHashString(string)":"a48dd9e1","renounceOwnership()":"715018a6","setInactivityThreshold(uint256)":"d7eaef49","setMaxStakePercent(uint256)":"0514c74b","setMinStakeAmount(uint256)":"eb4af045","setPenaltyRate(uint256)":"a1bab447","slashInactiveStaker(address)":"c3a6668c","stake(uint256)":"a694fc3a","stakers(uint256)":"fd5e6dd1","stakes(address)":"16934fc4","token()":"fc0c546a","totalStaked()":"817b1cd2","transferOwnership(address)":"f2fde38b","unstake(uint256)":"2e17de78"},"id":36}