{"abi":[{"type":"constructor","inputs":[{"name":"initialOwner","type":"address","internalType":"address"}],"stateMutability":"nonpayable"},{"type":"function","name":"MAX_SCORE","inputs":[],"outputs":[{"name":"","type":"uint256","internalType":"uint256"}],"stateMutability":"view"},{"type":"function","name":"blacklist","inputs":[{"name":"user","type":"address","internalType":"address"}],"outputs":[],"stateMutability":"nonpayable"},{"type":"function","name":"getSybilScore","inputs":[{"name":"user","type":"address","internalType":"address"}],"outputs":[{"name":"","type":"uint256","internalType":"uint256"}],"stateMutability":"view"},{"type":"function","name":"isBlacklisted","inputs":[{"name":"user","type":"address","internalType":"address"}],"outputs":[{"name":"","type":"bool","internalType":"bool"}],"stateMutability":"view"},{"type":"function","name":"owner","inputs":[],"outputs":[{"name":"","type":"address","internalType":"address"}],"stateMutability":"view"},{"type":"function","name":"renounceOwnership","inputs":[],"outputs":[],"stateMutability":"nonpayable"},{"type":"function","name":"setSybilScore","inputs":[{"name":"user","type":"address","internalType":"address"},{"name":"score","type":"uint256","internalType":"uint256"}],"outputs":[],"stateMutability":"nonpayable"},{"type":"function","name":"transferOwnership","inputs":[{"name":"newOwner","type":"address","internalType":"address"}],"outputs":[],"stateMutability":"nonpayable"},{"type":"function","name":"whitelist","inputs":[{"name":"user","type":"address","internalType":"address"}],"outputs":[],"stateMutability":"nonpayable"},{"type":"event","name":"OwnershipTransferred","inputs":[{"name":"previousOwner","type":"address","indexed":true,"internalType":"address"},{"name":"newOwner","type":"address","indexed":true,"internalType":"address"}],"anonymous":false},{"type":"event","name":"SybilScoreUpdated","inputs":[{"name":"user","type":"address","indexed":true,"internalType":"address"},{"name":"newScore","type":"uint256","indexed":false,"internalType":"uint256"}],"anonymous":false},{"type":"event","name":"UserBlacklisted","inputs":[{"name":"user","type":"address","indexed":true,"internalType":"address"}],"anonymous":false},{"type":"event","name":"UserWhitelisted","inputs":[{"name":"user","type":"address","indexed":true,"internalType":"address"}],"anonymous":false},{"type":"error","name":"OwnableInvalidOwner","inputs":[{"name":"owner","type":"address","internalType":"address"}]},{"type":"error","name":"OwnableUnauthorizedAccount","inputs":[{"name":"account","type":"address","internalType":"address"}]}],"bytecode":{"object":"0x608060405234801561000f575f5ffd5b50604051610c8e380380610c8e833981810160405281019061003191906101d7565b805f73ffffffffffffffffffffffffffffffffffffffff168173ffffffffffffffffffffffffffffffffffffffff16036100a2575f6040517f1e4fbdf70000000000000000000000000000000000000000000000000000000081526004016100999190610211565b60405180910390fd5b6100b1816100b860201b60201c565b505061022a565b5f5f5f9054906101000a900473ffffffffffffffffffffffffffffffffffffffff169050815f5f6101000a81548173ffffffffffffffffffffffffffffffffffffffff021916908373ffffffffffffffffffffffffffffffffffffffff1602179055508173ffffffffffffffffffffffffffffffffffffffff168173ffffffffffffffffffffffffffffffffffffffff167f8be0079c531659141344cd1fd0a4f28419497f9722a3daafe3b4186f6b6457e060405160405180910390a35050565b5f5ffd5b5f73ffffffffffffffffffffffffffffffffffffffff82169050919050565b5f6101a68261017d565b9050919050565b6101b68161019c565b81146101c0575f5ffd5b50565b5f815190506101d1816101ad565b92915050565b5f602082840312156101ec576101eb610179565b5b5f6101f9848285016101c3565b91505092915050565b61020b8161019c565b82525050565b5f6020820190506102245f830184610202565b92915050565b610a57806102375f395ff3fe608060405234801561000f575f5ffd5b5060043610610091575f3560e01c80639b19251a116100645780639b19251a146100f7578063eb24505614610113578063f2fde38b14610143578063f9f92be41461015f578063fe575a871461017b57610091565b806327ff62231461009557806338f6dc07146100b3578063715018a6146100cf5780638da5cb5b146100d9575b5f5ffd5b61009d6101ab565b6040516100aa91906107dc565b60405180910390f35b6100cd60048036038101906100c8919061087d565b6101b0565b005b6100d76102fe565b005b6100e1610311565b6040516100ee91906108ca565b60405180910390f35b610111600480360381019061010c91906108e3565b610338565b005b61012d600480360381019061012891906108e3565b610448565b60405161013a91906107dc565b60405180910390f35b61015d600480360381019061015891906108e3565b61048e565b005b610179600480360381019061017491906108e3565b610512565b005b610195600480360381019061019091906108e3565b610623565b6040516101a29190610928565b60405180910390f35b606481565b6101b8610675565b5f73ffffffffffffffffffffffffffffffffffffffff168273ffffffffffffffffffffffffffffffffffffffff1603610226576040517f08c379a000000000000000000000000000000000000000000000000000000000815260040161021d9061099b565b60405180910390fd5b606481111561026a576040517f08c379a000000000000000000000000000000000000000000000000000000000815260040161026190610a03565b60405180910390fd5b8060015f8473ffffffffffffffffffffffffffffffffffffffff1673ffffffffffffffffffffffffffffffffffffffff1681526020019081526020015f20819055508173ffffffffffffffffffffffffffffffffffffffff167feeb89363b636786993827696ec219342c1fc3678e1ad5bc12900acb8fe2829d3826040516102f291906107dc565b60405180910390a25050565b610306610675565b61030f5f6106fc565b565b5f5f5f9054906101000a900473ffffffffffffffffffffffffffffffffffffffff16905090565b610340610675565b5f73ffffffffffffffffffffffffffffffffffffffff168173ffffffffffffffffffffffffffffffffffffffff16036103ae576040517f08c379a00000000000000000000000000000000000000000000000000000000081526004016103a59061099b565b60405180910390fd5b5f60025f8373ffffffffffffffffffffffffffffffffffffffff1673ffffffffffffffffffffffffffffffffffffffff1681526020019081526020015f205f6101000a81548160ff0219169083151502179055508073ffffffffffffffffffffffffffffffffffffffff167f7409cb8e690bcd1487fd4fd27dad3fa92388d201ba6f953631d6d6b26299f84960405160405180910390a250565b5f60015f8373ffffffffffffffffffffffffffffffffffffffff1673ffffffffffffffffffffffffffffffffffffffff1681526020019081526020015f20549050919050565b610496610675565b5f73ffffffffffffffffffffffffffffffffffffffff168173ffffffffffffffffffffffffffffffffffffffff1603610506575f6040517f1e4fbdf70000000000000000000000000000000000000000000000000000000081526004016104fd91906108ca565b60405180910390fd5b61050f816106fc565b50565b61051a610675565b5f73ffffffffffffffffffffffffffffffffffffffff168173ffffffffffffffffffffffffffffffffffffffff1603610588576040517f08c379a000000000000000000000000000000000000000000000000000000000815260040161057f9061099b565b60405180910390fd5b600160025f8373ffffffffffffffffffffffffffffffffffffffff1673ffffffffffffffffffffffffffffffffffffffff1681526020019081526020015f205f6101000a81548160ff0219169083151502179055508073ffffffffffffffffffffffffffffffffffffffff167f7f8b7dc89dae85811a7a85800b892b5816ad5d381c856f1b56490f8fc470c9cb60405160405180910390a250565b5f60025f8373ffffffffffffffffffffffffffffffffffffffff1673ffffffffffffffffffffffffffffffffffffffff1681526020019081526020015f205f9054906101000a900460ff169050919050565b61067d6107bd565b73ffffffffffffffffffffffffffffffffffffffff1661069b610311565b73ffffffffffffffffffffffffffffffffffffffff16146106fa576106be6107bd565b6040517f118cdaa70000000000000000000000000000000000000000000000000000000081526004016106f191906108ca565b60405180910390fd5b565b5f5f5f9054906101000a900473ffffffffffffffffffffffffffffffffffffffff169050815f5f6101000a81548173ffffffffffffffffffffffffffffffffffffffff021916908373ffffffffffffffffffffffffffffffffffffffff1602179055508173ffffffffffffffffffffffffffffffffffffffff168173ffffffffffffffffffffffffffffffffffffffff167f8be0079c531659141344cd1fd0a4f28419497f9722a3daafe3b4186f6b6457e060405160405180910390a35050565b5f33905090565b5f819050919050565b6107d6816107c4565b82525050565b5f6020820190506107ef5f8301846107cd565b92915050565b5f5ffd5b5f73ffffffffffffffffffffffffffffffffffffffff82169050919050565b5f610822826107f9565b9050919050565b61083281610818565b811461083c575f5ffd5b50565b5f8135905061084d81610829565b92915050565b61085c816107c4565b8114610866575f5ffd5b50565b5f8135905061087781610853565b92915050565b5f5f60408385031215610893576108926107f5565b5b5f6108a08582860161083f565b92505060206108b185828601610869565b9150509250929050565b6108c481610818565b82525050565b5f6020820190506108dd5f8301846108bb565b92915050565b5f602082840312156108f8576108f76107f5565b5b5f6109058482850161083f565b91505092915050565b5f8115159050919050565b6109228161090e565b82525050565b5f60208201905061093b5f830184610919565b92915050565b5f82825260208201905092915050565b7f496e76616c6964206164647265737300000000000000000000000000000000005f82015250565b5f610985600f83610941565b915061099082610951565b602082019050919050565b5f6020820190508181035f8301526109b281610979565b9050919050565b7f53636f7265206d757374206265206265747765656e203020616e6420313030005f82015250565b5f6109ed601f83610941565b91506109f8826109b9565b602082019050919050565b5f6020820190508181035f830152610a1a816109e1565b905091905056fea2646970667358221220ab3e2c7f653df422bf6089a87f5e98a4668170c71c4872963812d6a421b4337464736f6c634300081c0033","linkReferences":{}},"methodIdentifiers":{"MAX_SCORE()":"27ff6223","blacklist(address)":"f9f92be4","getSybilScore(address)":"eb245056","isBlacklisted(address)":"fe575a87","owner()":"8da5cb5b","renounceOwnership()":"715018a6","setSybilScore(address,uint256)":"38f6dc07","transferOwnership(address)":"f2fde38b","whitelist(address)":"9b19251a"},"id":37}