{"abi":[{"type":"constructor","inputs":[{"name":"_staking","type":"address","internalType":"address"},{"name":"_sybilGuard","type":"address","internalType":"address"},{"name":"_minStake","type":"uint256","internalType":"uint256"},{"name":"initialOwner","type":"address","internalType":"address"}],"stateMutability":"nonpayable"},{"type":"function","name":"checkInactivity","inputs":[{"name":"validator","type":"address","internalType":"address"}],"outputs":[{"name":"","type":"bool","internalType":"bool"}],"stateMutability":"view"},{"type":"function","name":"getValidatorStake","inputs":[{"name":"validator","type":"address","internalType":"address"}],"outputs":[{"name":"","type":"uint256","internalType":"uint256"}],"stateMutability":"view"},{"type":"function","name":"getValidators","inputs":[],"outputs":[{"name":"","type":"address[]","internalType":"address[]"}],"stateMutability":"view"},{"type":"function","name":"heartbeat","inputs":[],"outputs":[],"stateMutability":"nonpayable"},{"type":"function","name":"heartbeatTimeout","inputs":[],"outputs":[{"name":"","type":"uint256","internalType":"uint256"}],"stateMutability":"view"},{"type":"function","name":"isActiveValidator","inputs":[{"name":"validator","type":"address","internalType":"address"}],"outputs":[{"name":"","type":"bool","internalType":"bool"}],"stateMutability":"view"},{"type":"function","name":"minStakeRequired","inputs":[],"outputs":[{"name":"","type":"uint256","internalType":"uint256"}],"stateMutability":"view"},{"type":"function","name":"owner","inputs":[],"outputs":[{"name":"","type":"address","internalType":"address"}],"stateMutability":"view"},{"type":"function","name":"registerValidator","inputs":[],"outputs":[],"stateMutability":"nonpayable"},{"type":"function","name":"renounceOwnership","inputs":[],"outputs":[],"stateMutability":"nonpayable"},{"type":"function","name":"setHeartbeatTimeout","inputs":[{"name":"timeout","type":"uint256","internalType":"uint256"}],"outputs":[],"stateMutability":"nonpayable"},{"type":"function","name":"setMinStakeRequired","inputs":[{"name":"_minStake","type":"uint256","internalType":"uint256"}],"outputs":[],"stateMutability":"nonpayable"},{"type":"function","name":"slashValidator","inputs":[{"name":"validator","type":"address","internalType":"address"}],"outputs":[],"stateMutability":"nonpayable"},{"type":"function","name":"staking","inputs":[],"outputs":[{"name":"","type":"address","internalType":"contract Staking"}],"stateMutability":"view"},{"type":"function","name":"sybilGuard","inputs":[],"outputs":[{"name":"","type":"address","internalType":"contract SybilGuard"}],"stateMutability":"view"},{"type":"function","name":"transferOwnership","inputs":[{"name":"newOwner","type":"address","internalType":"address"}],"outputs":[],"stateMutability":"nonpayable"},{"type":"function","name":"validatorList","inputs":[{"name":"","type":"uint256","internalType":"uint256"}],"outputs":[{"name":"","type":"address","internalType":"address"}],"stateMutability":"view"},{"type":"function","name":"validators","inputs":[{"name":"","type":"address","internalType":"address"}],"outputs":[{"name":"active","type":"bool","internalType":"bool"},{"name":"lastHeartbeat","type":"uint256","internalType":"uint256"},{"name":"stakeAmount","type":"uint256","internalType":"uint256"}],"stateMutability":"view"},{"type":"event","name":"Heartbeat","inputs":[{"name":"validator","type":"address","indexed":true,"internalType":"address"}],"anonymous":false},{"type":"event","name":"HeartbeatTimeoutUpdated","inputs":[{"name":"newTimeout","type":"uint256","indexed":false,"internalType":"uint256"}],"anonymous":false},{"type":"event","name":"MinStakeUpdated","inputs":[{"name":"newStake","type":"uint256","indexed":false,"internalType":"uint256"}],"anonymous":false},{"type":"event","name":"OwnershipTransferred","inputs":[{"name":"previousOwner","type":"address","indexed":true,"internalType":"address"},{"name":"newOwner","type":"address","indexed":true,"internalType":"address"}],"anonymous":false},{"type":"event","name":"ValidatorAdded","inputs":[{"name":"validator","type":"address","indexed":true,"internalType":"address"}],"anonymous":false},{"type":"event","name":"ValidatorRemoved","inputs":[{"name":"validator","type":"address","indexed":true,"internalType":"address"}],"anonymous":false},{"type":"error","name":"OwnableInvalidOwner","inputs":[{"name":"owner","type":"address","internalType":"address"}]},{"type":"error","name":"OwnableUnauthorizedAccount","inputs":[{"name":"account","type":"address","internalType":"address"}]}],"bytecode":{"object":"0x608060405262015180600555348015610016575f5ffd5b506040516119cb3803806119cb833981810160405281019061003891906103e5565b805f73ffffffffffffffffffffffffffffffffffffffff168173ffffffffffffffffffffffffffffffffffffffff16036100a9575f6040517f1e4fbdf70000000000000000000000000000000000000000000000000000000081526004016100a09190610458565b60405180910390fd5b6100b88161029360201b60201c565b505f73ffffffffffffffffffffffffffffffffffffffff168473ffffffffffffffffffffffffffffffffffffffff1603610127576040517f08c379a000000000000000000000000000000000000000000000000000000000815260040161011e906104cb565b60405180910390fd5b5f73ffffffffffffffffffffffffffffffffffffffff168373ffffffffffffffffffffffffffffffffffffffff1603610195576040517f08c379a000000000000000000000000000000000000000000000000000000000815260040161018c90610533565b60405180910390fd5b5f73ffffffffffffffffffffffffffffffffffffffff168173ffffffffffffffffffffffffffffffffffffffff1603610203576040517f08c379a00000000000000000000000000000000000000000000000000000000081526004016101fa9061059b565b60405180910390fd5b8360035f6101000a81548173ffffffffffffffffffffffffffffffffffffffff021916908373ffffffffffffffffffffffffffffffffffffffff1602179055508260045f6101000a81548173ffffffffffffffffffffffffffffffffffffffff021916908373ffffffffffffffffffffffffffffffffffffffff16021790555081600681905550505050506105b9565b5f5f5f9054906101000a900473ffffffffffffffffffffffffffffffffffffffff169050815f5f6101000a81548173ffffffffffffffffffffffffffffffffffffffff021916908373ffffffffffffffffffffffffffffffffffffffff1602179055508173ffffffffffffffffffffffffffffffffffffffff168173ffffffffffffffffffffffffffffffffffffffff167f8be0079c531659141344cd1fd0a4f28419497f9722a3daafe3b4186f6b6457e060405160405180910390a35050565b5f5ffd5b5f73ffffffffffffffffffffffffffffffffffffffff82169050919050565b5f61038182610358565b9050919050565b61039181610377565b811461039b575f5ffd5b50565b5f815190506103ac81610388565b92915050565b5f819050919050565b6103c4816103b2565b81146103ce575f5ffd5b50565b5f815190506103df816103bb565b92915050565b5f5f5f5f608085870312156103fd576103fc610354565b5b5f61040a8782880161039e565b945050602061041b8782880161039e565b935050604061042c878288016103d1565b925050606061043d8782880161039e565b91505092959194509250565b61045281610377565b82525050565b5f60208201905061046b5f830184610449565b92915050565b5f82825260208201905092915050565b7f496e76616c6964207374616b696e6720636f6e747261637400000000000000005f82015250565b5f6104b5601883610471565b91506104c082610481565b602082019050919050565b5f6020820190508181035f8301526104e2816104a9565b9050919050565b7f496e76616c696420737962696c206775617264000000000000000000000000005f82015250565b5f61051d601383610471565b9150610528826104e9565b602082019050919050565b5f6020820190508181035f83015261054a81610511565b9050919050565b7f496e76616c6964206f776e6572000000000000000000000000000000000000005f82015250565b5f610585600d83610471565b915061059082610551565b602082019050919050565b5f6020820190508181035f8301526105b281610579565b9050919050565b611405806105c65f395ff3fe608060405234801561000f575f5ffd5b5060043610610114575f3560e01c80637bca38be116100a0578063bcc6587f1161006f578063bcc6587f146102a6578063d2044de2146102b0578063e36d7241146102e0578063f2fde38b146102fe578063fa52c7d81461031a57610114565b80637bca38be1461021c5780638da5cb5b1461023a578063b048e05614610258578063b7ab4db51461028857610114565b80634cf088d9116100e75780634cf088d91461019e578063502f6826146101bc5780635ae9b76e146101da578063635a5d7b146101f6578063715018a61461021257610114565b806334664846146101185780633defb9621461014857806340550a1c146101525780634711f58614610182575b5f5ffd5b610132600480360381019061012d9190610e53565b61034c565b60405161013f9190610e96565b60405180910390f35b610150610395565b005b61016c60048036038101906101679190610e53565b6104aa565b6040516101799190610ec9565b60405180910390f35b61019c60048036038101906101979190610e53565b6104fe565b005b6101a661062d565b6040516101b39190610f3d565b60405180910390f35b6101c4610652565b6040516101d19190610e96565b60405180910390f35b6101f460048036038101906101ef9190610f80565b610658565b005b610210600480360381019061020b9190610f80565b6106a1565b005b61021a6106ea565b005b6102246106fd565b6040516102319190610e96565b60405180910390f35b610242610703565b60405161024f9190610fba565b60405180910390f35b610272600480360381019061026d9190610f80565b61072a565b60405161027f9190610fba565b60405180910390f35b610290610765565b60405161029d919061108a565b60405180910390f35b6102ae6107f0565b005b6102ca60048036038101906102c59190610e53565b610b73565b6040516102d79190610ec9565b60405180910390f35b6102e8610bcb565b6040516102f591906110ca565b60405180910390f35b61031860048036038101906103139190610e53565b610bf0565b005b610334600480360381019061032f9190610e53565b610c74565b604051610343939291906110e3565b60405180910390f35b5f60015f8373ffffffffffffffffffffffffffffffffffffffff1673ffffffffffffffffffffffffffffffffffffffff1681526020019081526020015f20600201549050919050565b60015f3373ffffffffffffffffffffffffffffffffffffffff1673ffffffffffffffffffffffffffffffffffffffff1681526020019081526020015f205f015f9054906101000a900460ff16610420576040517f08c379a000000000000000000000000000000000000000000000000000000000815260040161041790611172565b60405180910390fd5b4260015f3373ffffffffffffffffffffffffffffffffffffffff1673ffffffffffffffffffffffffffffffffffffffff1681526020019081526020015f20600101819055503373ffffffffffffffffffffffffffffffffffffffff167f76fd25e9b1ccb2a2eb85da234dd15c82d9eec18877d3e6fc916eb7330fe04a6460405160405180910390a2565b5f60015f8373ffffffffffffffffffffffffffffffffffffffff1673ffffffffffffffffffffffffffffffffffffffff1681526020019081526020015f205f015f9054906101000a900460ff169050919050565b610506610ca6565b60015f8273ffffffffffffffffffffffffffffffffffffffff1673ffffffffffffffffffffffffffffffffffffffff1681526020019081526020015f205f015f9054906101000a900460ff16610591576040517f08c379a0000000000000000000000000000000000000000000000000000000008152600401610588906111da565b60405180910390fd5b5f60015f8373ffffffffffffffffffffffffffffffffffffffff1673ffffffffffffffffffffffffffffffffffffffff1681526020019081526020015f205f015f6101000a81548160ff0219169083151502179055508073ffffffffffffffffffffffffffffffffffffffff167fe1434e25d6611e0db941968fdc97811c982ac1602e951637d206f5fdda9dd8f160405160405180910390a250565b60035f9054906101000a900473ffffffffffffffffffffffffffffffffffffffff1681565b60065481565b610660610ca6565b806006819055507f47ab46f2c8d4258304a2f5551c1cbdb6981be49631365d1ba7191288a73f39ef816040516106969190610e96565b60405180910390a150565b6106a9610ca6565b806005819055507f8c4357655e50feea4262bfa7a2e5a894d716a266d5faf527a16d1b9d4ba7ff81816040516106df9190610e96565b60405180910390a150565b6106f2610ca6565b6106fb5f610d2d565b565b60055481565b5f5f5f9054906101000a900473ffffffffffffffffffffffffffffffffffffffff16905090565b60028181548110610739575f80fd5b905f5260205f20015f915054906101000a900473ffffffffffffffffffffffffffffffffffffffff1681565b606060028054806020026020016040519081016040528092919081815260200182805480156107e657602002820191905f5260205f20905b815f9054906101000a900473ffffffffffffffffffffffffffffffffffffffff1673ffffffffffffffffffffffffffffffffffffffff168152602001906001019080831161079d575b5050505050905090565b60015f3373ffffffffffffffffffffffffffffffffffffffff1673ffffffffffffffffffffffffffffffffffffffff1681526020019081526020015f205f015f9054906101000a900460ff161561087c576040517f08c379a000000000000000000000000000000000000000000000000000000000815260040161087390611242565b60405180910390fd5b5f60035f9054906101000a900473ffffffffffffffffffffffffffffffffffffffff1673ffffffffffffffffffffffffffffffffffffffff16637a766460336040518263ffffffff1660e01b81526004016108d79190610fba565b602060405180830381865afa1580156108f2573d5f5f3e3d5ffd5b505050506040513d601f19601f820116820180604052508101906109169190611274565b905060065481101561095d576040517f08c379a0000000000000000000000000000000000000000000000000000000008152600401610954906112e9565b60405180910390fd5b5f60045f9054906101000a900473ffffffffffffffffffffffffffffffffffffffff1673ffffffffffffffffffffffffffffffffffffffff1663eb245056336040518263ffffffff1660e01b81526004016109b89190610fba565b602060405180830381865afa1580156109d3573d5f5f3e3d5ffd5b505050506040513d601f19601f820116820180604052508101906109f79190611274565b90506032811115610a3d576040517f08c379a0000000000000000000000000000000000000000000000000000000008152600401610a3490611351565b60405180910390fd5b60405180606001604052806001151581526020014281526020018381525060015f3373ffffffffffffffffffffffffffffffffffffffff1673ffffffffffffffffffffffffffffffffffffffff1681526020019081526020015f205f820151815f015f6101000a81548160ff0219169083151502179055506020820151816001015560408201518160020155905050600233908060018154018082558091505060019003905f5260205f20015f9091909190916101000a81548173ffffffffffffffffffffffffffffffffffffffff021916908373ffffffffffffffffffffffffffffffffffffffff1602179055503373ffffffffffffffffffffffffffffffffffffffff167fe366c1c0452ed8eec96861e9e54141ebff23c9ec89fe27b996b45f5ec388498760405160405180910390a25050565b5f60055460015f8473ffffffffffffffffffffffffffffffffffffffff1673ffffffffffffffffffffffffffffffffffffffff1681526020019081526020015f2060010154610bc2919061139c565b42119050919050565b60045f9054906101000a900473ffffffffffffffffffffffffffffffffffffffff1681565b610bf8610ca6565b5f73ffffffffffffffffffffffffffffffffffffffff168173ffffffffffffffffffffffffffffffffffffffff1603610c68575f6040517f1e4fbdf7000000000000000000000000000000000000000000000000000000008152600401610c5f9190610fba565b60405180910390fd5b610c7181610d2d565b50565b6001602052805f5260405f205f91509050805f015f9054906101000a900460ff16908060010154908060020154905083565b610cae610dee565b73ffffffffffffffffffffffffffffffffffffffff16610ccc610703565b73ffffffffffffffffffffffffffffffffffffffff1614610d2b57610cef610dee565b6040517f118cdaa7000000000000000000000000000000000000000000000000000000008152600401610d229190610fba565b60405180910390fd5b565b5f5f5f9054906101000a900473ffffffffffffffffffffffffffffffffffffffff169050815f5f6101000a81548173ffffffffffffffffffffffffffffffffffffffff021916908373ffffffffffffffffffffffffffffffffffffffff1602179055508173ffffffffffffffffffffffffffffffffffffffff168173ffffffffffffffffffffffffffffffffffffffff167f8be0079c531659141344cd1fd0a4f28419497f9722a3daafe3b4186f6b6457e060405160405180910390a35050565b5f33905090565b5f5ffd5b5f73ffffffffffffffffffffffffffffffffffffffff82169050919050565b5f610e2282610df9565b9050919050565b610e3281610e18565b8114610e3c575f5ffd5b50565b5f81359050610e4d81610e29565b92915050565b5f60208284031215610e6857610e67610df5565b5b5f610e7584828501610e3f565b91505092915050565b5f819050919050565b610e9081610e7e565b82525050565b5f602082019050610ea95f830184610e87565b92915050565b5f8115159050919050565b610ec381610eaf565b82525050565b5f602082019050610edc5f830184610eba565b92915050565b5f819050919050565b5f610f05610f00610efb84610df9565b610ee2565b610df9565b9050919050565b5f610f1682610eeb565b9050919050565b5f610f2782610f0c565b9050919050565b610f3781610f1d565b82525050565b5f602082019050610f505f830184610f2e565b92915050565b610f5f81610e7e565b8114610f69575f5ffd5b50565b5f81359050610f7a81610f56565b92915050565b5f60208284031215610f9557610f94610df5565b5b5f610fa284828501610f6c565b91505092915050565b610fb481610e18565b82525050565b5f602082019050610fcd5f830184610fab565b92915050565b5f81519050919050565b5f82825260208201905092915050565b5f819050602082019050919050565b61100581610e18565b82525050565b5f6110168383610ffc565b60208301905092915050565b5f602082019050919050565b5f61103882610fd3565b6110428185610fdd565b935061104d83610fed565b805f5b8381101561107d578151611064888261100b565b975061106f83611022565b925050600181019050611050565b5085935050505092915050565b5f6020820190508181035f8301526110a2818461102e565b905092915050565b5f6110b482610f0c565b9050919050565b6110c4816110aa565b82525050565b5f6020820190506110dd5f8301846110bb565b92915050565b5f6060820190506110f65f830186610eba565b6111036020830185610e87565b6111106040830184610e87565b949350505050565b5f82825260208201905092915050565b7f4e6f7420616374697665000000000000000000000000000000000000000000005f82015250565b5f61115c600a83611118565b915061116782611128565b602082019050919050565b5f6020820190508181035f83015261118981611150565b9050919050565b7f4e6f7420612076616c696461746f7200000000000000000000000000000000005f82015250565b5f6111c4600f83611118565b91506111cf82611190565b602082019050919050565b5f6020820190508181035f8301526111f1816111b8565b9050919050565b7f416c726561647920612076616c696461746f72000000000000000000000000005f82015250565b5f61122c601383611118565b9150611237826111f8565b602082019050919050565b5f6020820190508181035f83015261125981611220565b9050919050565b5f8151905061126e81610f56565b92915050565b5f6020828403121561128957611288610df5565b5b5f61129684828501611260565b91505092915050565b7f4e6f7420656e6f756768207374616b65000000000000000000000000000000005f82015250565b5f6112d3601083611118565b91506112de8261129f565b602082019050919050565b5f6020820190508181035f830152611300816112c7565b9050919050565b7f4869676820537962696c2053636f7265000000000000000000000000000000005f82015250565b5f61133b601083611118565b915061134682611307565b602082019050919050565b5f6020820190508181035f8301526113688161132f565b9050919050565b7f4e487b71000000000000000000000000000000000000000000000000000000005f52601160045260245ffd5b5f6113a682610e7e565b91506113b183610e7e565b92508282019050808211156113c9576113c861136f565b5b9291505056fea26469706673582212202c413695dcc357a903b2266dd9082cd6e897d3f361993d4b8e8a92fc3793c85964736f6c634300081c0033","linkReferences":{}},"methodIdentifiers":{"checkInactivity(address)":"d2044de2","getValidatorStake(address)":"34664846","getValidators()":"b7ab4db5","heartbeat()":"3defb962","heartbeatTimeout()":"7bca38be","isActiveValidator(address)":"40550a1c","minStakeRequired()":"502f6826","owner()":"8da5cb5b","registerValidator()":"bcc6587f","renounceOwnership()":"715018a6","setHeartbeatTimeout(uint256)":"635a5d7b","setMinStakeRequired(uint256)":"5ae9b76e","slashValidator(address)":"4711f586","staking()":"4cf088d9","sybilGuard()":"e36d7241","transferOwnership(address)":"f2fde38b","validatorList(uint256)":"b048e056","validators(address)":"fa52c7d8"},"id":39}